{
  "contractName": "Canvas",
  "abi": [
    {
      "inputs": [],
      "stateMutability": "nonpayable",
      "type": "constructor"
    },
    {
      "anonymous": false,
      "inputs": [
        {
          "indexed": true,
          "internalType": "address",
          "name": "owner",
          "type": "address"
        },
        {
          "indexed": true,
          "internalType": "address",
          "name": "approved",
          "type": "address"
        },
        {
          "indexed": true,
          "internalType": "uint256",
          "name": "tokenId",
          "type": "uint256"
        }
      ],
      "name": "Approval",
      "type": "event"
    },
    {
      "anonymous": false,
      "inputs": [
        {
          "indexed": true,
          "internalType": "address",
          "name": "owner",
          "type": "address"
        },
        {
          "indexed": true,
          "internalType": "address",
          "name": "operator",
          "type": "address"
        },
        {
          "indexed": false,
          "internalType": "bool",
          "name": "approved",
          "type": "bool"
        }
      ],
      "name": "ApprovalForAll",
      "type": "event"
    },
    {
      "anonymous": false,
      "inputs": [
        {
          "indexed": true,
          "internalType": "address",
          "name": "from",
          "type": "address"
        },
        {
          "indexed": true,
          "internalType": "address",
          "name": "to",
          "type": "address"
        },
        {
          "indexed": true,
          "internalType": "uint256",
          "name": "tokenId",
          "type": "uint256"
        }
      ],
      "name": "Transfer",
      "type": "event"
    },
    {
      "inputs": [
        {
          "internalType": "address",
          "name": "to",
          "type": "address"
        },
        {
          "internalType": "uint256",
          "name": "tokenId",
          "type": "uint256"
        }
      ],
      "name": "approve",
      "outputs": [],
      "stateMutability": "nonpayable",
      "type": "function"
    },
    {
      "inputs": [
        {
          "internalType": "address",
          "name": "owner",
          "type": "address"
        }
      ],
      "name": "balanceOf",
      "outputs": [
        {
          "internalType": "uint256",
          "name": "",
          "type": "uint256"
        }
      ],
      "stateMutability": "view",
      "type": "function"
    },
    {
      "inputs": [],
      "name": "baseURI",
      "outputs": [
        {
          "internalType": "string",
          "name": "",
          "type": "string"
        }
      ],
      "stateMutability": "view",
      "type": "function"
    },
    {
      "inputs": [
        {
          "internalType": "uint256",
          "name": "tokenId",
          "type": "uint256"
        }
      ],
      "name": "burn",
      "outputs": [],
      "stateMutability": "nonpayable",
      "type": "function"
    },
    {
      "inputs": [
        {
          "internalType": "uint256",
          "name": "tokenId",
          "type": "uint256"
        }
      ],
      "name": "getApproved",
      "outputs": [
        {
          "internalType": "address",
          "name": "",
          "type": "address"
        }
      ],
      "stateMutability": "view",
      "type": "function"
    },
    {
      "inputs": [
        {
          "internalType": "address",
          "name": "owner",
          "type": "address"
        },
        {
          "internalType": "address",
          "name": "operator",
          "type": "address"
        }
      ],
      "name": "isApprovedForAll",
      "outputs": [
        {
          "internalType": "bool",
          "name": "",
          "type": "bool"
        }
      ],
      "stateMutability": "view",
      "type": "function"
    },
    {
      "inputs": [],
      "name": "name",
      "outputs": [
        {
          "internalType": "string",
          "name": "",
          "type": "string"
        }
      ],
      "stateMutability": "view",
      "type": "function"
    },
    {
      "inputs": [
        {
          "internalType": "uint256",
          "name": "tokenId",
          "type": "uint256"
        }
      ],
      "name": "ownerOf",
      "outputs": [
        {
          "internalType": "address",
          "name": "",
          "type": "address"
        }
      ],
      "stateMutability": "view",
      "type": "function"
    },
    {
      "inputs": [
        {
          "internalType": "address",
          "name": "from",
          "type": "address"
        },
        {
          "internalType": "address",
          "name": "to",
          "type": "address"
        },
        {
          "internalType": "uint256",
          "name": "tokenId",
          "type": "uint256"
        }
      ],
      "name": "safeTransferFrom",
      "outputs": [],
      "stateMutability": "nonpayable",
      "type": "function"
    },
    {
      "inputs": [
        {
          "internalType": "address",
          "name": "from",
          "type": "address"
        },
        {
          "internalType": "address",
          "name": "to",
          "type": "address"
        },
        {
          "internalType": "uint256",
          "name": "tokenId",
          "type": "uint256"
        },
        {
          "internalType": "bytes",
          "name": "_data",
          "type": "bytes"
        }
      ],
      "name": "safeTransferFrom",
      "outputs": [],
      "stateMutability": "nonpayable",
      "type": "function"
    },
    {
      "inputs": [
        {
          "internalType": "address",
          "name": "operator",
          "type": "address"
        },
        {
          "internalType": "bool",
          "name": "approved",
          "type": "bool"
        }
      ],
      "name": "setApprovalForAll",
      "outputs": [],
      "stateMutability": "nonpayable",
      "type": "function"
    },
    {
      "inputs": [
        {
          "internalType": "bytes4",
          "name": "interfaceId",
          "type": "bytes4"
        }
      ],
      "name": "supportsInterface",
      "outputs": [
        {
          "internalType": "bool",
          "name": "",
          "type": "bool"
        }
      ],
      "stateMutability": "view",
      "type": "function"
    },
    {
      "inputs": [],
      "name": "symbol",
      "outputs": [
        {
          "internalType": "string",
          "name": "",
          "type": "string"
        }
      ],
      "stateMutability": "view",
      "type": "function"
    },
    {
      "inputs": [
        {
          "internalType": "uint256",
          "name": "index",
          "type": "uint256"
        }
      ],
      "name": "tokenByIndex",
      "outputs": [
        {
          "internalType": "uint256",
          "name": "",
          "type": "uint256"
        }
      ],
      "stateMutability": "view",
      "type": "function"
    },
    {
      "inputs": [
        {
          "internalType": "address",
          "name": "owner",
          "type": "address"
        },
        {
          "internalType": "uint256",
          "name": "index",
          "type": "uint256"
        }
      ],
      "name": "tokenOfOwnerByIndex",
      "outputs": [
        {
          "internalType": "uint256",
          "name": "",
          "type": "uint256"
        }
      ],
      "stateMutability": "view",
      "type": "function"
    },
    {
      "inputs": [
        {
          "internalType": "uint256",
          "name": "tokenId",
          "type": "uint256"
        }
      ],
      "name": "tokenURI",
      "outputs": [
        {
          "internalType": "string",
          "name": "",
          "type": "string"
        }
      ],
      "stateMutability": "view",
      "type": "function"
    },
    {
      "inputs": [],
      "name": "totalSupply",
      "outputs": [
        {
          "internalType": "uint256",
          "name": "",
          "type": "uint256"
        }
      ],
      "stateMutability": "view",
      "type": "function"
    },
    {
      "inputs": [
        {
          "internalType": "address",
          "name": "from",
          "type": "address"
        },
        {
          "internalType": "address",
          "name": "to",
          "type": "address"
        },
        {
          "internalType": "uint256",
          "name": "tokenId",
          "type": "uint256"
        }
      ],
      "name": "transferFrom",
      "outputs": [],
      "stateMutability": "nonpayable",
      "type": "function"
    }
  ],
  "bytecode": "0x60806040523480156200001157600080fd5b506040518060400160405280600681526020017f43616e76617300000000000000000000000000000000000000000000000000008152506040518060400160405280600381526020017f434e560000000000000000000000000000000000000000000000000000000000815250620000af7f01ffc9a7000000000000000000000000000000000000000000000000000000006200017c60201b60201c565b8160069080519060200190620000c792919062000254565b508060079080519060200190620000e092919062000254565b50620001127f80ac58cd000000000000000000000000000000000000000000000000000000006200017c60201b60201c565b620001437f5b5e139f000000000000000000000000000000000000000000000000000000006200017c60201b60201c565b620001747f780e9d63000000000000000000000000000000000000000000000000000000006200017c60201b60201c565b5050620003ec565b63ffffffff60e01b817bffffffffffffffffffffffffffffffffffffffffffffffffffffffff19161415620001e8576040517f08c379a0000000000000000000000000000000000000000000000000000000008152600401620001df906200032b565b60405180910390fd5b6001600080837bffffffffffffffffffffffffffffffffffffffffffffffffffffffff19167bffffffffffffffffffffffffffffffffffffffffffffffffffffffff1916815260200190815260200160002060006101000a81548160ff02191690831515021790555050565b82805462000262906200035e565b90600052602060002090601f016020900481019282620002865760008555620002d2565b82601f10620002a157805160ff1916838001178555620002d2565b82800160010185558215620002d2579182015b82811115620002d1578251825591602001919060010190620002b4565b5b509050620002e19190620002e5565b5090565b5b8082111562000300576000816000905550600101620002e6565b5090565b600062000313601c836200034d565b91506200032082620003c3565b602082019050919050565b60006020820190508181036000830152620003468162000304565b9050919050565b600082825260208201905092915050565b600060028204905060018216806200037757607f821691505b602082108114156200038e576200038d62000394565b5b50919050565b7f4e487b7100000000000000000000000000000000000000000000000000000000600052602260045260246000fd5b7f4552433136353a20696e76616c696420696e7465726661636520696400000000600082015250565b61303180620003fc6000396000f3fe608060405234801561001057600080fd5b50600436106101165760003560e01c80634f6ccce7116100a257806395d89b411161007157806395d89b4114610305578063a22cb46514610323578063b88d4fde1461033f578063c87b56dd1461035b578063e985e9c51461038b57610116565b80634f6ccce7146102575780636352211e146102875780636c0360eb146102b757806370a08231146102d557610116565b806318160ddd116100e957806318160ddd146101b557806323b872dd146101d35780632f745c59146101ef57806342842e0e1461021f57806342966c681461023b57610116565b806301ffc9a71461011b57806306fdde031461014b578063081812fc14610169578063095ea7b314610199575b600080fd5b610135600480360381019061013091906121be565b6103bb565b604051610142919061257e565b60405180910390f35b610153610422565b6040516101609190612599565b60405180910390f35b610183600480360381019061017e9190612210565b6104b4565b6040516101909190612517565b60405180910390f35b6101b360048036038101906101ae9190612182565b610539565b005b6101bd610651565b6040516101ca919061277b565b60405180910390f35b6101ed60048036038101906101e8919061207c565b610662565b005b61020960048036038101906102049190612182565b6106c2565b604051610216919061277b565b60405180910390f35b6102396004803603810190610234919061207c565b61071d565b005b61025560048036038101906102509190612210565b61073d565b005b610271600480360381019061026c9190612210565b610799565b60405161027e919061277b565b60405180910390f35b6102a1600480360381019061029c9190612210565b6107bc565b6040516102ae9190612517565b60405180910390f35b6102bf6107f3565b6040516102cc9190612599565b60405180910390f35b6102ef60048036038101906102ea9190612017565b610885565b6040516102fc919061277b565b60405180910390f35b61030d610944565b60405161031a9190612599565b60405180910390f35b61033d60048036038101906103389190612146565b6109d6565b005b610359600480360381019061035491906120cb565b610b57565b005b61037560048036038101906103709190612210565b610bb9565b6040516103829190612599565b60405180910390f35b6103a560048036038101906103a09190612040565b610d2c565b6040516103b2919061257e565b60405180910390f35b6000806000837bffffffffffffffffffffffffffffffffffffffffffffffffffffffff19167bffffffffffffffffffffffffffffffffffffffffffffffffffffffff1916815260200190815260200160002060009054906101000a900460ff169050919050565b606060068054610431906129a0565b80601f016020809104026020016040519081016040528092919081815260200182805461045d906129a0565b80156104aa5780601f1061047f576101008083540402835291602001916104aa565b820191906000526020600020905b81548152906001019060200180831161048d57829003601f168201915b5050505050905090565b60006104bf82610dc0565b6104fe576040517f08c379a00000000000000000000000000000000000000000000000000000000081526004016104f5906126bb565b60405180910390fd5b6004600083815260200190815260200160002060009054906101000a900473ffffffffffffffffffffffffffffffffffffffff169050919050565b6000610544826107bc565b90508073ffffffffffffffffffffffffffffffffffffffff168373ffffffffffffffffffffffffffffffffffffffff1614156105b5576040517f08c379a00000000000000000000000000000000000000000000000000000000081526004016105ac9061271b565b60405180910390fd5b8073ffffffffffffffffffffffffffffffffffffffff166105d4610ddd565b73ffffffffffffffffffffffffffffffffffffffff1614806106035750610602816105fd610ddd565b610d2c565b5b610642576040517f08c379a00000000000000000000000000000000000000000000000000000000081526004016106399061265b565b60405180910390fd5b61064c8383610de5565b505050565b600061065d6002610e9e565b905090565b61067361066d610ddd565b82610eb3565b6106b2576040517f08c379a00000000000000000000000000000000000000000000000000000000081526004016106a99061273b565b60405180910390fd5b6106bd838383610f91565b505050565b600061071582600160008673ffffffffffffffffffffffffffffffffffffffff1673ffffffffffffffffffffffffffffffffffffffff1681526020019081526020016000206111a890919063ffffffff16565b905092915050565b61073883838360405180602001604052806000815250610b57565b505050565b61074e610748610ddd565b82610eb3565b61078d576040517f08c379a00000000000000000000000000000000000000000000000000000000081526004016107849061275b565b60405180910390fd5b610796816111c2565b50565b6000806107b08360026112f490919063ffffffff16565b50905080915050919050565b60006107ec82604051806060016040528060298152602001612fd36029913960026113209092919063ffffffff16565b9050919050565b606060098054610802906129a0565b80601f016020809104026020016040519081016040528092919081815260200182805461082e906129a0565b801561087b5780601f106108505761010080835404028352916020019161087b565b820191906000526020600020905b81548152906001019060200180831161085e57829003601f168201915b5050505050905090565b60008073ffffffffffffffffffffffffffffffffffffffff168273ffffffffffffffffffffffffffffffffffffffff1614156108f6576040517f08c379a00000000000000000000000000000000000000000000000000000000081526004016108ed9061267b565b60405180910390fd5b61093d600160008473ffffffffffffffffffffffffffffffffffffffff1673ffffffffffffffffffffffffffffffffffffffff16815260200190815260200160002061133f565b9050919050565b606060078054610953906129a0565b80601f016020809104026020016040519081016040528092919081815260200182805461097f906129a0565b80156109cc5780601f106109a1576101008083540402835291602001916109cc565b820191906000526020600020905b8154815290600101906020018083116109af57829003601f168201915b5050505050905090565b6109de610ddd565b73ffffffffffffffffffffffffffffffffffffffff168273ffffffffffffffffffffffffffffffffffffffff161415610a4c576040517f08c379a0000000000000000000000000000000000000000000000000000000008152600401610a439061261b565b60405180910390fd5b8060056000610a59610ddd565b73ffffffffffffffffffffffffffffffffffffffff1673ffffffffffffffffffffffffffffffffffffffff16815260200190815260200160002060008473ffffffffffffffffffffffffffffffffffffffff1673ffffffffffffffffffffffffffffffffffffffff16815260200190815260200160002060006101000a81548160ff0219169083151502179055508173ffffffffffffffffffffffffffffffffffffffff16610b06610ddd565b73ffffffffffffffffffffffffffffffffffffffff167f17307eab39ab6107e8899845ad3d59bd9653f200f220920489ca2b5937696c3183604051610b4b919061257e565b60405180910390a35050565b610b68610b62610ddd565b83610eb3565b610ba7576040517f08c379a0000000000000000000000000000000000000000000000000000000008152600401610b9e9061273b565b60405180910390fd5b610bb384848484611354565b50505050565b6060610bc482610dc0565b610c03576040517f08c379a0000000000000000000000000000000000000000000000000000000008152600401610bfa906126fb565b60405180910390fd5b6000600860008481526020019081526020016000208054610c23906129a0565b80601f0160208091040260200160405190810160405280929190818152602001828054610c4f906129a0565b8015610c9c5780601f10610c7157610100808354040283529160200191610c9c565b820191906000526020600020905b815481529060010190602001808311610c7f57829003601f168201915b505050505090506000610cad6107f3565b9050600081511415610cc3578192505050610d27565b600082511115610cf8578082604051602001610ce09291906124f3565b60405160208183030381529060405292505050610d27565b80610d02856113b0565b604051602001610d139291906124f3565b604051602081830303815290604052925050505b919050565b6000600560008473ffffffffffffffffffffffffffffffffffffffff1673ffffffffffffffffffffffffffffffffffffffff16815260200190815260200160002060008373ffffffffffffffffffffffffffffffffffffffff1673ffffffffffffffffffffffffffffffffffffffff16815260200190815260200160002060009054906101000a900460ff16905092915050565b6000610dd682600261155d90919063ffffffff16565b9050919050565b600033905090565b816004600083815260200190815260200160002060006101000a81548173ffffffffffffffffffffffffffffffffffffffff021916908373ffffffffffffffffffffffffffffffffffffffff160217905550808273ffffffffffffffffffffffffffffffffffffffff16610e58836107bc565b73ffffffffffffffffffffffffffffffffffffffff167f8c5be1e5ebec7d5bd14f71427d1e84f3dd0314c0f7b2291e5b200ac8c7c3b92560405160405180910390a45050565b6000610eac82600001611577565b9050919050565b6000610ebe82610dc0565b610efd576040517f08c379a0000000000000000000000000000000000000000000000000000000008152600401610ef49061263b565b60405180910390fd5b6000610f08836107bc565b90508073ffffffffffffffffffffffffffffffffffffffff168473ffffffffffffffffffffffffffffffffffffffff161480610f7757508373ffffffffffffffffffffffffffffffffffffffff16610f5f846104b4565b73ffffffffffffffffffffffffffffffffffffffff16145b80610f885750610f878185610d2c565b5b91505092915050565b8273ffffffffffffffffffffffffffffffffffffffff16610fb1826107bc565b73ffffffffffffffffffffffffffffffffffffffff1614611007576040517f08c379a0000000000000000000000000000000000000000000000000000000008152600401610ffe906126db565b60405180910390fd5b600073ffffffffffffffffffffffffffffffffffffffff168273ffffffffffffffffffffffffffffffffffffffff161415611077576040517f08c379a000000000000000000000000000000000000000000000000000000000815260040161106e906125fb565b60405180910390fd5b611082838383611588565b61108d600082610de5565b6110de81600160008673ffffffffffffffffffffffffffffffffffffffff1673ffffffffffffffffffffffffffffffffffffffff16815260200190815260200160002061158d90919063ffffffff16565b5061113081600160008573ffffffffffffffffffffffffffffffffffffffff1673ffffffffffffffffffffffffffffffffffffffff1681526020019081526020016000206115a790919063ffffffff16565b50611147818360026115c19092919063ffffffff16565b50808273ffffffffffffffffffffffffffffffffffffffff168473ffffffffffffffffffffffffffffffffffffffff167fddf252ad1be2c89b69c2b068fc378daa952ba7f163c4a11628f55a4df523b3ef60405160405180910390a4505050565b60006111b783600001836115f6565b60001c905092915050565b60006111cd826107bc565b90506111db81600084611588565b6111e6600083610de5565b6000600860008481526020019081526020016000208054611206906129a0565b90501461122d5760086000838152602001908152602001600020600061122c9190611ee9565b5b61127e82600160008473ffffffffffffffffffffffffffffffffffffffff1673ffffffffffffffffffffffffffffffffffffffff16815260200190815260200160002061158d90919063ffffffff16565b5061129382600261169090919063ffffffff16565b5081600073ffffffffffffffffffffffffffffffffffffffff168273ffffffffffffffffffffffffffffffffffffffff167fddf252ad1be2c89b69c2b068fc378daa952ba7f163c4a11628f55a4df523b3ef60405160405180910390a45050565b60008060008061130786600001866116aa565b915091508160001c8160001c9350935050509250929050565b6000611333846000018460001b8461175a565b60001c90509392505050565b600061134d82600001611821565b9050919050565b61135f848484610f91565b61136b84848484611832565b6113aa576040517f08c379a00000000000000000000000000000000000000000000000000000000081526004016113a1906125db565b60405180910390fd5b50505050565b606060008214156113f8576040518060400160405280600181526020017f30000000000000000000000000000000000000000000000000000000000000008152509050611558565b600082905060005b6000821461142a57808061141390612a03565b915050600a826114239190612885565b9150611400565b60008167ffffffffffffffff81111561146c577f4e487b7100000000000000000000000000000000000000000000000000000000600052604160045260246000fd5b6040519080825280601f01601f19166020018201604052801561149e5781602001600182028036833780820191505090505b5090505b60008514611551576001826114b791906128b6565b9150600a856114c69190612a4c565b60306114d2919061282f565b60f81b81838151811061150e577f4e487b7100000000000000000000000000000000000000000000000000000000600052603260045260246000fd5b60200101907effffffffffffffffffffffffffffffffffffffffffffffffffffffffffffff1916908160001a905350600a8561154a9190612885565b94506114a2565b8093505050505b919050565b600061156f836000018360001b6119c9565b905092915050565b600081600001805490509050919050565b505050565b600061159f836000018360001b6119ec565b905092915050565b60006115b9836000018360001b611b76565b905092915050565b60006115ed846000018460001b8473ffffffffffffffffffffffffffffffffffffffff1660001b611be6565b90509392505050565b600081836000018054905011611641576040517f08c379a0000000000000000000000000000000000000000000000000000000008152600401611638906125bb565b60405180910390fd5b82600001828154811061167d577f4e487b7100000000000000000000000000000000000000000000000000000000600052603260045260246000fd5b9060005260206000200154905092915050565b60006116a2836000018360001b611cf8565b905092915050565b600080828460000180549050116116f6576040517f08c379a00000000000000000000000000000000000000000000000000000000081526004016116ed9061269b565b60405180910390fd5b6000846000018481548110611734577f4e487b7100000000000000000000000000000000000000000000000000000000600052603260045260246000fd5b906000526020600020906002020190508060000154816001015492509250509250929050565b600080846001016000858152602001908152602001600020549050600081141583906117bc576040517f08c379a00000000000000000000000000000000000000000000000000000000081526004016117b39190612599565b60405180910390fd5b50846000016001826117ce91906128b6565b81548110611805577f4e487b7100000000000000000000000000000000000000000000000000000000600052603260045260246000fd5b9060005260206000209060020201600101549150509392505050565b600081600001805490509050919050565b60006118538473ffffffffffffffffffffffffffffffffffffffff16611eb3565b156119bc578373ffffffffffffffffffffffffffffffffffffffff1663150b7a0261187c610ddd565b8786866040518563ffffffff1660e01b815260040161189e9493929190612532565b602060405180830381600087803b1580156118b857600080fd5b505af19250505080156118e957506040513d601f19601f820116820180604052508101906118e691906121e7565b60015b61196c573d8060008114611919576040519150601f19603f3d011682016040523d82523d6000602084013e61191e565b606091505b50600081511415611964576040517f08c379a000000000000000000000000000000000000000000000000000000000815260040161195b906125db565b60405180910390fd5b805181602001fd5b63150b7a0260e01b7bffffffffffffffffffffffffffffffffffffffffffffffffffffffff1916817bffffffffffffffffffffffffffffffffffffffffffffffffffffffff1916149150506119c1565b600190505b949350505050565b600080836001016000848152602001908152602001600020541415905092915050565b60008083600101600084815260200190815260200160002054905060008114611b6a576000600182611a1e91906128b6565b9050600060018660000180549050611a3691906128b6565b90506000866000018281548110611a76577f4e487b7100000000000000000000000000000000000000000000000000000000600052603260045260246000fd5b9060005260206000200154905080876000018481548110611ac0577f4e487b7100000000000000000000000000000000000000000000000000000000600052603260045260246000fd5b9060005260206000200181905550600183611adb919061282f565b8760010160008381526020019081526020016000208190555086600001805480611b2e577f4e487b7100000000000000000000000000000000000000000000000000000000600052603160045260246000fd5b60019003818190600052602060002001600090559055866001016000878152602001908152602001600020600090556001945050505050611b70565b60009150505b92915050565b6000611b828383611ec6565b611bdb578260000182908060018154018082558091505060019003906000526020600020016000909190919091505582600001805490508360010160008481526020019081526020016000208190555060019050611be0565b600090505b92915050565b6000808460010160008581526020019081526020016000205490506000811415611c8d57846000016040518060400160405280868152602001858152509080600181540180825580915050600190039060005260206000209060020201600090919091909150600082015181600001556020820151816001015550508460000180549050856001016000868152602001908152602001600020819055506001915050611cf1565b8285600001600183611c9f91906128b6565b81548110611cd6577f4e487b7100000000000000000000000000000000000000000000000000000000600052603260045260246000fd5b90600052602060002090600202016001018190555060009150505b9392505050565b60008083600101600084815260200190815260200160002054905060008114611ea7576000600182611d2a91906128b6565b9050600060018660000180549050611d4291906128b6565b90506000866000018281548110611d82577f4e487b7100000000000000000000000000000000000000000000000000000000600052603260045260246000fd5b9060005260206000209060020201905080876000018481548110611dcf577f4e487b7100000000000000000000000000000000000000000000000000000000600052603260045260246000fd5b90600052602060002090600202016000820154816000015560018201548160010155905050600183611e01919061282f565b876001016000836000015481526020019081526020016000208190555086600001805480611e58577f4e487b7100000000000000000000000000000000000000000000000000000000600052603160045260246000fd5b6001900381819060005260206000209060020201600080820160009055600182016000905550509055866001016000878152602001908152602001600020600090556001945050505050611ead565b60009150505b92915050565b600080823b905060008111915050919050565b600080836001016000848152602001908152602001600020541415905092915050565b508054611ef5906129a0565b6000825580601f10611f075750611f26565b601f016020900490600052602060002090810190611f259190611f29565b5b50565b5b80821115611f42576000816000905550600101611f2a565b5090565b6000611f59611f54846127bb565b612796565b905082815260208101848484011115611f7157600080fd5b611f7c84828561295e565b509392505050565b600081359050611f9381612f76565b92915050565b600081359050611fa881612f8d565b92915050565b600081359050611fbd81612fa4565b92915050565b600081519050611fd281612fa4565b92915050565b600082601f830112611fe957600080fd5b8135611ff9848260208601611f46565b91505092915050565b60008135905061201181612fbb565b92915050565b60006020828403121561202957600080fd5b600061203784828501611f84565b91505092915050565b6000806040838503121561205357600080fd5b600061206185828601611f84565b925050602061207285828601611f84565b9150509250929050565b60008060006060848603121561209157600080fd5b600061209f86828701611f84565b93505060206120b086828701611f84565b92505060406120c186828701612002565b9150509250925092565b600080600080608085870312156120e157600080fd5b60006120ef87828801611f84565b945050602061210087828801611f84565b935050604061211187828801612002565b925050606085013567ffffffffffffffff81111561212e57600080fd5b61213a87828801611fd8565b91505092959194509250565b6000806040838503121561215957600080fd5b600061216785828601611f84565b925050602061217885828601611f99565b9150509250929050565b6000806040838503121561219557600080fd5b60006121a385828601611f84565b92505060206121b485828601612002565b9150509250929050565b6000602082840312156121d057600080fd5b60006121de84828501611fae565b91505092915050565b6000602082840312156121f957600080fd5b600061220784828501611fc3565b91505092915050565b60006020828403121561222257600080fd5b600061223084828501612002565b91505092915050565b612242816128ea565b82525050565b612251816128fc565b82525050565b6000612262826127ec565b61226c8185612802565b935061227c81856020860161296d565b61228581612b39565b840191505092915050565b600061229b826127f7565b6122a58185612813565b93506122b581856020860161296d565b6122be81612b39565b840191505092915050565b60006122d4826127f7565b6122de8185612824565b93506122ee81856020860161296d565b80840191505092915050565b6000612307602283612813565b915061231282612b4a565b604082019050919050565b600061232a603283612813565b915061233582612b99565b604082019050919050565b600061234d602483612813565b915061235882612be8565b604082019050919050565b6000612370601983612813565b915061237b82612c37565b602082019050919050565b6000612393602c83612813565b915061239e82612c60565b604082019050919050565b60006123b6603883612813565b91506123c182612caf565b604082019050919050565b60006123d9602a83612813565b91506123e482612cfe565b604082019050919050565b60006123fc602283612813565b915061240782612d4d565b604082019050919050565b600061241f602c83612813565b915061242a82612d9c565b604082019050919050565b6000612442602983612813565b915061244d82612deb565b604082019050919050565b6000612465602f83612813565b915061247082612e3a565b604082019050919050565b6000612488602183612813565b915061249382612e89565b604082019050919050565b60006124ab603183612813565b91506124b682612ed8565b604082019050919050565b60006124ce603083612813565b91506124d982612f27565b604082019050919050565b6124ed81612954565b82525050565b60006124ff82856122c9565b915061250b82846122c9565b91508190509392505050565b600060208201905061252c6000830184612239565b92915050565b60006080820190506125476000830187612239565b6125546020830186612239565b61256160408301856124e4565b81810360608301526125738184612257565b905095945050505050565b60006020820190506125936000830184612248565b92915050565b600060208201905081810360008301526125b38184612290565b905092915050565b600060208201905081810360008301526125d4816122fa565b9050919050565b600060208201905081810360008301526125f48161231d565b9050919050565b6000602082019050818103600083015261261481612340565b9050919050565b6000602082019050818103600083015261263481612363565b9050919050565b6000602082019050818103600083015261265481612386565b9050919050565b60006020820190508181036000830152612674816123a9565b9050919050565b60006020820190508181036000830152612694816123cc565b9050919050565b600060208201905081810360008301526126b4816123ef565b9050919050565b600060208201905081810360008301526126d481612412565b9050919050565b600060208201905081810360008301526126f481612435565b9050919050565b6000602082019050818103600083015261271481612458565b9050919050565b600060208201905081810360008301526127348161247b565b9050919050565b600060208201905081810360008301526127548161249e565b9050919050565b60006020820190508181036000830152612774816124c1565b9050919050565b600060208201905061279060008301846124e4565b92915050565b60006127a06127b1565b90506127ac82826129d2565b919050565b6000604051905090565b600067ffffffffffffffff8211156127d6576127d5612b0a565b5b6127df82612b39565b9050602081019050919050565b600081519050919050565b600081519050919050565b600082825260208201905092915050565b600082825260208201905092915050565b600081905092915050565b600061283a82612954565b915061284583612954565b9250827fffffffffffffffffffffffffffffffffffffffffffffffffffffffffffffffff0382111561287a57612879612a7d565b5b828201905092915050565b600061289082612954565b915061289b83612954565b9250826128ab576128aa612aac565b5b828204905092915050565b60006128c182612954565b91506128cc83612954565b9250828210156128df576128de612a7d565b5b828203905092915050565b60006128f582612934565b9050919050565b60008115159050919050565b60007fffffffff0000000000000000000000000000000000000000000000000000000082169050919050565b600073ffffffffffffffffffffffffffffffffffffffff82169050919050565b6000819050919050565b82818337600083830152505050565b60005b8381101561298b578082015181840152602081019050612970565b8381111561299a576000848401525b50505050565b600060028204905060018216806129b857607f821691505b602082108114156129cc576129cb612adb565b5b50919050565b6129db82612b39565b810181811067ffffffffffffffff821117156129fa576129f9612b0a565b5b80604052505050565b6000612a0e82612954565b91507fffffffffffffffffffffffffffffffffffffffffffffffffffffffffffffffff821415612a4157612a40612a7d565b5b600182019050919050565b6000612a5782612954565b9150612a6283612954565b925082612a7257612a71612aac565b5b828206905092915050565b7f4e487b7100000000000000000000000000000000000000000000000000000000600052601160045260246000fd5b7f4e487b7100000000000000000000000000000000000000000000000000000000600052601260045260246000fd5b7f4e487b7100000000000000000000000000000000000000000000000000000000600052602260045260246000fd5b7f4e487b7100000000000000000000000000000000000000000000000000000000600052604160045260246000fd5b6000601f19601f8301169050919050565b7f456e756d657261626c655365743a20696e646578206f7574206f6620626f756e60008201527f6473000000000000000000000000000000000000000000000000000000000000602082015250565b7f4552433732313a207472616e7366657220746f206e6f6e20455243373231526560008201527f63656976657220696d706c656d656e7465720000000000000000000000000000602082015250565b7f4552433732313a207472616e7366657220746f20746865207a65726f2061646460008201527f7265737300000000000000000000000000000000000000000000000000000000602082015250565b7f4552433732313a20617070726f766520746f2063616c6c657200000000000000600082015250565b7f4552433732313a206f70657261746f7220717565727920666f72206e6f6e657860008201527f697374656e7420746f6b656e0000000000000000000000000000000000000000602082015250565b7f4552433732313a20617070726f76652063616c6c6572206973206e6f74206f7760008201527f6e6572206e6f7220617070726f76656420666f7220616c6c0000000000000000602082015250565b7f4552433732313a2062616c616e636520717565727920666f7220746865207a6560008201527f726f206164647265737300000000000000000000000000000000000000000000602082015250565b7f456e756d657261626c654d61703a20696e646578206f7574206f6620626f756e60008201527f6473000000000000000000000000000000000000000000000000000000000000602082015250565b7f4552433732313a20617070726f76656420717565727920666f72206e6f6e657860008201527f697374656e7420746f6b656e0000000000000000000000000000000000000000602082015250565b7f4552433732313a207472616e73666572206f6620746f6b656e2074686174206960008201527f73206e6f74206f776e0000000000000000000000000000000000000000000000602082015250565b7f4552433732314d657461646174613a2055524920717565727920666f72206e6f60008201527f6e6578697374656e7420746f6b656e0000000000000000000000000000000000602082015250565b7f4552433732313a20617070726f76616c20746f2063757272656e74206f776e6560008201527f7200000000000000000000000000000000000000000000000000000000000000602082015250565b7f4552433732313a207472616e736665722063616c6c6572206973206e6f74206f60008201527f776e6572206e6f7220617070726f766564000000000000000000000000000000602082015250565b7f4552433732314275726e61626c653a2063616c6c6572206973206e6f74206f7760008201527f6e6572206e6f7220617070726f76656400000000000000000000000000000000602082015250565b612f7f816128ea565b8114612f8a57600080fd5b50565b612f96816128fc565b8114612fa157600080fd5b50565b612fad81612908565b8114612fb857600080fd5b50565b612fc481612954565b8114612fcf57600080fd5b5056fe4552433732313a206f776e657220717565727920666f72206e6f6e6578697374656e7420746f6b656ea2646970667358221220213428a9c4ff5eff0bae8afb07a3564fed48fbb6e7908d81ca88df8cc67fa03964736f6c63430008010033",
  "immutableReferences": {},
  "source": "pragma solidity >=0.8.1;\n\nimport \"../contract-utils/token/ERC721/ERC721Burnable.sol\";\n\ncontract Canvas is ERC721Burnable {\n\tconstructor() public ERC721(\"Canvas\", \"CNV\") {\n\n\t}\n}",
  "sourcePath": "/home/sand/projects/ror/contracts/CanvasERC721.sol",
  "compiler": {
    "name": "solc",
    "version": "0.8.1+commit.df193b15.Emscripten.clang"
  },
  "schemaVersion": "3.3.3",
  "updatedAt": "2021-02-12T17:40:04.536Z",
  "devdoc": {
    "kind": "dev",
    "methods": {
      "approve(address,uint256)": {
        "details": "See {IERC721-approve}."
      },
      "balanceOf(address)": {
        "details": "See {IERC721-balanceOf}."
      },
      "baseURI()": {
        "details": "Returns the base URI set via {_setBaseURI}. This will be automatically added as a prefix in {tokenURI} to each token's URI, or to the token ID if no specific URI is set for that token ID."
      },
      "burn(uint256)": {
        "details": "Burns `tokenId`. See {ERC721-_burn}. Requirements: - The caller must own `tokenId` or be an approved operator."
      },
      "getApproved(uint256)": {
        "details": "See {IERC721-getApproved}."
      },
      "isApprovedForAll(address,address)": {
        "details": "See {IERC721-isApprovedForAll}."
      },
      "name()": {
        "details": "See {IERC721Metadata-name}."
      },
      "ownerOf(uint256)": {
        "details": "See {IERC721-ownerOf}."
      },
      "safeTransferFrom(address,address,uint256)": {
        "details": "See {IERC721-safeTransferFrom}."
      },
      "safeTransferFrom(address,address,uint256,bytes)": {
        "details": "See {IERC721-safeTransferFrom}."
      },
      "setApprovalForAll(address,bool)": {
        "details": "See {IERC721-setApprovalForAll}."
      },
      "supportsInterface(bytes4)": {
        "details": "See {IERC165-supportsInterface}. Time complexity O(1), guaranteed to always use less than 30 000 gas."
      },
      "symbol()": {
        "details": "See {IERC721Metadata-symbol}."
      },
      "tokenByIndex(uint256)": {
        "details": "See {IERC721Enumerable-tokenByIndex}."
      },
      "tokenOfOwnerByIndex(address,uint256)": {
        "details": "See {IERC721Enumerable-tokenOfOwnerByIndex}."
      },
      "tokenURI(uint256)": {
        "details": "See {IERC721Metadata-tokenURI}."
      },
      "totalSupply()": {
        "details": "See {IERC721Enumerable-totalSupply}."
      },
      "transferFrom(address,address,uint256)": {
        "details": "See {IERC721-transferFrom}."
      }
    },
    "version": 1
  },
  "userdoc": {
    "kind": "user",
    "methods": {},
    "version": 1
  }
}