{
  "contractName": "CanvasERC721",
  "abi": [
    {
      "inputs": [],
      "stateMutability": "nonpayable",
      "type": "constructor"
    },
    {
      "anonymous": false,
      "inputs": [
        {
          "indexed": true,
          "internalType": "address",
          "name": "owner",
          "type": "address"
        },
        {
          "indexed": true,
          "internalType": "address",
          "name": "approved",
          "type": "address"
        },
        {
          "indexed": true,
          "internalType": "uint256",
          "name": "tokenId",
          "type": "uint256"
        }
      ],
      "name": "Approval",
      "type": "event"
    },
    {
      "anonymous": false,
      "inputs": [
        {
          "indexed": true,
          "internalType": "address",
          "name": "owner",
          "type": "address"
        },
        {
          "indexed": true,
          "internalType": "address",
          "name": "operator",
          "type": "address"
        },
        {
          "indexed": false,
          "internalType": "bool",
          "name": "approved",
          "type": "bool"
        }
      ],
      "name": "ApprovalForAll",
      "type": "event"
    },
    {
      "anonymous": false,
      "inputs": [
        {
          "indexed": true,
          "internalType": "address",
          "name": "from",
          "type": "address"
        },
        {
          "indexed": true,
          "internalType": "address",
          "name": "to",
          "type": "address"
        },
        {
          "indexed": true,
          "internalType": "uint256",
          "name": "tokenId",
          "type": "uint256"
        }
      ],
      "name": "Transfer",
      "type": "event"
    },
    {
      "inputs": [
        {
          "internalType": "address",
          "name": "to",
          "type": "address"
        },
        {
          "internalType": "uint256",
          "name": "tokenId",
          "type": "uint256"
        }
      ],
      "name": "approve",
      "outputs": [],
      "stateMutability": "nonpayable",
      "type": "function"
    },
    {
      "inputs": [
        {
          "internalType": "address",
          "name": "owner",
          "type": "address"
        }
      ],
      "name": "balanceOf",
      "outputs": [
        {
          "internalType": "uint256",
          "name": "",
          "type": "uint256"
        }
      ],
      "stateMutability": "view",
      "type": "function",
      "constant": true
    },
    {
      "inputs": [],
      "name": "baseURI",
      "outputs": [
        {
          "internalType": "string",
          "name": "",
          "type": "string"
        }
      ],
      "stateMutability": "view",
      "type": "function",
      "constant": true
    },
    {
      "inputs": [
        {
          "internalType": "uint256",
          "name": "tokenId",
          "type": "uint256"
        }
      ],
      "name": "burn",
      "outputs": [],
      "stateMutability": "nonpayable",
      "type": "function"
    },
    {
      "inputs": [
        {
          "internalType": "uint256",
          "name": "",
          "type": "uint256"
        }
      ],
      "name": "canvasData",
      "outputs": [
        {
          "internalType": "uint256",
          "name": "immut_netKey_name",
          "type": "uint256"
        },
        {
          "internalType": "uint256",
          "name": "mutable_0",
          "type": "uint256"
        },
        {
          "internalType": "uint256",
          "name": "mutable_1",
          "type": "uint256"
        }
      ],
      "stateMutability": "view",
      "type": "function",
      "constant": true
    },
    {
      "inputs": [
        {
          "internalType": "uint64",
          "name": "",
          "type": "uint64"
        }
      ],
      "name": "dnaImmutableExists",
      "outputs": [
        {
          "internalType": "bool",
          "name": "",
          "type": "bool"
        }
      ],
      "stateMutability": "view",
      "type": "function",
      "constant": true
    },
    {
      "inputs": [
        {
          "internalType": "uint256",
          "name": "tokenId",
          "type": "uint256"
        }
      ],
      "name": "getApproved",
      "outputs": [
        {
          "internalType": "address",
          "name": "",
          "type": "address"
        }
      ],
      "stateMutability": "view",
      "type": "function",
      "constant": true
    },
    {
      "inputs": [
        {
          "internalType": "address",
          "name": "owner",
          "type": "address"
        },
        {
          "internalType": "address",
          "name": "operator",
          "type": "address"
        }
      ],
      "name": "isApprovedForAll",
      "outputs": [
        {
          "internalType": "bool",
          "name": "",
          "type": "bool"
        }
      ],
      "stateMutability": "view",
      "type": "function",
      "constant": true
    },
    {
      "inputs": [],
      "name": "name",
      "outputs": [
        {
          "internalType": "string",
          "name": "",
          "type": "string"
        }
      ],
      "stateMutability": "view",
      "type": "function",
      "constant": true
    },
    {
      "inputs": [
        {
          "internalType": "uint256",
          "name": "tokenId",
          "type": "uint256"
        }
      ],
      "name": "ownerOf",
      "outputs": [
        {
          "internalType": "address",
          "name": "",
          "type": "address"
        }
      ],
      "stateMutability": "view",
      "type": "function",
      "constant": true
    },
    {
      "inputs": [
        {
          "internalType": "address",
          "name": "from",
          "type": "address"
        },
        {
          "internalType": "address",
          "name": "to",
          "type": "address"
        },
        {
          "internalType": "uint256",
          "name": "tokenId",
          "type": "uint256"
        }
      ],
      "name": "safeTransferFrom",
      "outputs": [],
      "stateMutability": "nonpayable",
      "type": "function"
    },
    {
      "inputs": [
        {
          "internalType": "address",
          "name": "from",
          "type": "address"
        },
        {
          "internalType": "address",
          "name": "to",
          "type": "address"
        },
        {
          "internalType": "uint256",
          "name": "tokenId",
          "type": "uint256"
        },
        {
          "internalType": "bytes",
          "name": "_data",
          "type": "bytes"
        }
      ],
      "name": "safeTransferFrom",
      "outputs": [],
      "stateMutability": "nonpayable",
      "type": "function"
    },
    {
      "inputs": [
        {
          "internalType": "address",
          "name": "operator",
          "type": "address"
        },
        {
          "internalType": "bool",
          "name": "approved",
          "type": "bool"
        }
      ],
      "name": "setApprovalForAll",
      "outputs": [],
      "stateMutability": "nonpayable",
      "type": "function"
    },
    {
      "inputs": [
        {
          "internalType": "bytes4",
          "name": "interfaceId",
          "type": "bytes4"
        }
      ],
      "name": "supportsInterface",
      "outputs": [
        {
          "internalType": "bool",
          "name": "",
          "type": "bool"
        }
      ],
      "stateMutability": "view",
      "type": "function",
      "constant": true
    },
    {
      "inputs": [],
      "name": "symbol",
      "outputs": [
        {
          "internalType": "string",
          "name": "",
          "type": "string"
        }
      ],
      "stateMutability": "view",
      "type": "function",
      "constant": true
    },
    {
      "inputs": [
        {
          "internalType": "uint256",
          "name": "index",
          "type": "uint256"
        }
      ],
      "name": "tokenByIndex",
      "outputs": [
        {
          "internalType": "uint256",
          "name": "",
          "type": "uint256"
        }
      ],
      "stateMutability": "view",
      "type": "function",
      "constant": true
    },
    {
      "inputs": [
        {
          "internalType": "address",
          "name": "owner",
          "type": "address"
        },
        {
          "internalType": "uint256",
          "name": "index",
          "type": "uint256"
        }
      ],
      "name": "tokenOfOwnerByIndex",
      "outputs": [
        {
          "internalType": "uint256",
          "name": "",
          "type": "uint256"
        }
      ],
      "stateMutability": "view",
      "type": "function",
      "constant": true
    },
    {
      "inputs": [
        {
          "internalType": "uint256",
          "name": "tokenId",
          "type": "uint256"
        }
      ],
      "name": "tokenURI",
      "outputs": [
        {
          "internalType": "string",
          "name": "",
          "type": "string"
        }
      ],
      "stateMutability": "view",
      "type": "function",
      "constant": true
    },
    {
      "inputs": [],
      "name": "totalSupply",
      "outputs": [
        {
          "internalType": "uint256",
          "name": "",
          "type": "uint256"
        }
      ],
      "stateMutability": "view",
      "type": "function",
      "constant": true
    },
    {
      "inputs": [
        {
          "internalType": "address",
          "name": "from",
          "type": "address"
        },
        {
          "internalType": "address",
          "name": "to",
          "type": "address"
        },
        {
          "internalType": "uint256",
          "name": "tokenId",
          "type": "uint256"
        }
      ],
      "name": "transferFrom",
      "outputs": [],
      "stateMutability": "nonpayable",
      "type": "function"
    },
    {
      "inputs": [
        {
          "internalType": "uint64",
          "name": "_dnaImmutable",
          "type": "uint64"
        },
        {
          "internalType": "uint8",
          "name": "_netKey",
          "type": "uint8"
        },
        {
          "internalType": "uint184",
          "name": "_name",
          "type": "uint184"
        },
        {
          "internalType": "uint256",
          "name": "_dnaMutable_0",
          "type": "uint256"
        },
        {
          "internalType": "uint256",
          "name": "_dnaMutable_1",
          "type": "uint256"
        }
      ],
      "name": "mint",
      "outputs": [
        {
          "internalType": "uint256",
          "name": "",
          "type": "uint256"
        }
      ],
      "stateMutability": "payable",
      "type": "function",
      "payable": true
    },
    {
      "inputs": [
        {
          "internalType": "uint256",
          "name": "_id",
          "type": "uint256"
        }
      ],
      "name": "getCanvasInfo",
      "outputs": [
        {
          "internalType": "uint64",
          "name": "",
          "type": "uint64"
        },
        {
          "internalType": "uint8",
          "name": "",
          "type": "uint8"
        },
        {
          "internalType": "uint184",
          "name": "",
          "type": "uint184"
        },
        {
          "internalType": "uint256",
          "name": "",
          "type": "uint256"
        },
        {
          "internalType": "uint256",
          "name": "",
          "type": "uint256"
        }
      ],
      "stateMutability": "view",
      "type": "function",
      "constant": true
    },
    {
      "inputs": [
        {
          "internalType": "uint256",
          "name": "_id",
          "type": "uint256"
        },
        {
          "internalType": "uint256",
          "name": "_dnaMutable_0",
          "type": "uint256"
        },
        {
          "internalType": "uint256",
          "name": "_dnaMutable_1",
          "type": "uint256"
        }
      ],
      "name": "setDnaMutable",
      "outputs": [],
      "stateMutability": "nonpayable",
      "type": "function"
    },
    {
      "inputs": [
        {
          "internalType": "uint256",
          "name": "_id",
          "type": "uint256"
        },
        {
          "internalType": "uint8",
          "name": "_netKey",
          "type": "uint8"
        },
        {
          "internalType": "uint184",
          "name": "_name",
          "type": "uint184"
        }
      ],
      "name": "setNetKeyAndName",
      "outputs": [],
      "stateMutability": "nonpayable",
      "type": "function"
    }
  ],
  "bytecode": "0x60806040523480156200001157600080fd5b506040518060400160405280600681526020017f43616e76617300000000000000000000000000000000000000000000000000008152506040518060400160405280600381526020017f434e560000000000000000000000000000000000000000000000000000000000815250620000af7f01ffc9a700000000000000000000000000000000000000000000000000000000620001e560201b60201c565b8160069080519060200190620000c7929190620002bd565b508060079080519060200190620000e0929190620002bd565b50620001127f80ac58cd00000000000000000000000000000000000000000000000000000000620001e560201b60201c565b620001437f5b5e139f00000000000000000000000000000000000000000000000000000000620001e560201b60201c565b620001747f780e9d6300000000000000000000000000000000000000000000000000000000620001e560201b60201c565b5050600a6040518060600160405280600081526020016000815260200160008152509080600181540180825580915050600190039060005260206000209060030201600090919091909150600082015181600001556020820151816001015560408201518160020155505062000455565b63ffffffff60e01b817bffffffffffffffffffffffffffffffffffffffffffffffffffffffff1916141562000251576040517f08c379a0000000000000000000000000000000000000000000000000000000008152600401620002489062000394565b60405180910390fd5b6001600080837bffffffffffffffffffffffffffffffffffffffffffffffffffffffff19167bffffffffffffffffffffffffffffffffffffffffffffffffffffffff1916815260200190815260200160002060006101000a81548160ff02191690831515021790555050565b828054620002cb90620003c7565b90600052602060002090601f016020900481019282620002ef57600085556200033b565b82601f106200030a57805160ff19168380011785556200033b565b828001600101855582156200033b579182015b828111156200033a5782518255916020019190600101906200031d565b5b5090506200034a91906200034e565b5090565b5b80821115620003695760008160009055506001016200034f565b5090565b60006200037c601c83620003b6565b915062000389826200042c565b602082019050919050565b60006020820190508181036000830152620003af816200036d565b9050919050565b600082825260208201905092915050565b60006002820490506001821680620003e057607f821691505b60208210811415620003f757620003f6620003fd565b5b50919050565b7f4e487b7100000000000000000000000000000000000000000000000000000000600052602260045260246000fd5b7f4552433136353a20696e76616c696420696e7465726661636520696400000000600082015250565b613ea380620004656000396000f3fe60806040526004361061014b5760003560e01c806342966c68116100b6578063a22cb4651161006f578063a22cb465146104f4578063b88d4fde1461051d578063c1ace58514610546578063c87b56dd14610576578063e985e9c5146105b3578063f1e32669146105f05761014b565b806342966c68146103be5780634f6ccce7146103e75780636352211e146104245780636c0360eb1461046157806370a082311461048c57806395d89b41146104c95761014b565b80631bb0a7c1116101085780631bb0a7c1146102865780631c1c1518146102af5780631e2cd403146102f057806323b872dd1461032f5780632f745c591461035857806342842e0e146103955761014b565b806301ffc9a71461015057806306fdde031461018d578063081812fc146101b8578063095ea7b3146101f5578063130e0a191461021e57806318160ddd1461025b575b600080fd5b34801561015c57600080fd5b5061017760048036038101906101729190612bb6565b610619565b604051610184919061316d565b60405180910390f35b34801561019957600080fd5b506101a2610680565b6040516101af9190613188565b60405180910390f35b3480156101c457600080fd5b506101df60048036038101906101da9190612c08565b610712565b6040516101ec9190613106565b60405180910390f35b34801561020157600080fd5b5061021c60048036038101906102179190612b7a565b610797565b005b34801561022a57600080fd5b5061024560048036038101906102409190612ccf565b6108af565b604051610252919061316d565b60405180910390f35b34801561026757600080fd5b506102706108cf565b60405161027d91906133ea565b60405180910390f35b34801561029257600080fd5b506102ad60048036038101906102a89190612c80565b6108e0565b005b3480156102bb57600080fd5b506102d660048036038101906102d19190612c08565b610a0c565b6040516102e795949392919061343c565b60405180910390f35b3480156102fc57600080fd5b5061031760048036038101906103129190612c08565b610bab565b60405161032693929190613405565b60405180910390f35b34801561033b57600080fd5b5061035660048036038101906103519190612a74565b610be5565b005b34801561036457600080fd5b5061037f600480360381019061037a9190612b7a565b610c45565b60405161038c91906133ea565b60405180910390f35b3480156103a157600080fd5b506103bc60048036038101906103b79190612a74565b610ca0565b005b3480156103ca57600080fd5b506103e560048036038101906103e09190612c08565b610cc0565b005b3480156103f357600080fd5b5061040e60048036038101906104099190612c08565b610d1c565b60405161041b91906133ea565b60405180910390f35b34801561043057600080fd5b5061044b60048036038101906104469190612c08565b610d3f565b6040516104589190613106565b60405180910390f35b34801561046d57600080fd5b50610476610d76565b6040516104839190613188565b60405180910390f35b34801561049857600080fd5b506104b360048036038101906104ae9190612a0f565b610e08565b6040516104c091906133ea565b60405180910390f35b3480156104d557600080fd5b506104de610ec7565b6040516104eb9190613188565b60405180910390f35b34801561050057600080fd5b5061051b60048036038101906105169190612b3e565b610f59565b005b34801561052957600080fd5b50610544600480360381019061053f9190612ac3565b6110da565b005b610560600480360381019061055b9190612cf8565b61113c565b60405161056d91906133ea565b60405180910390f35b34801561058257600080fd5b5061059d60048036038101906105989190612c08565b611276565b6040516105aa9190613188565b60405180910390f35b3480156105bf57600080fd5b506105da60048036038101906105d59190612a38565b6113e9565b6040516105e7919061316d565b60405180910390f35b3480156105fc57600080fd5b5061061760048036038101906106129190612c31565b61147d565b005b6000806000837bffffffffffffffffffffffffffffffffffffffffffffffffffffffff19167bffffffffffffffffffffffffffffffffffffffffffffffffffffffff1916815260200190815260200160002060009054906101000a900460ff169050919050565b60606006805461068f906136dd565b80601f01602080910402602001604051908101604052809291908181526020018280546106bb906136dd565b80156107085780601f106106dd57610100808354040283529160200191610708565b820191906000526020600020905b8154815290600101906020018083116106eb57829003601f168201915b5050505050905090565b600061071d82611572565b61075c576040517f08c379a00000000000000000000000000000000000000000000000000000000081526004016107539061332a565b60405180910390fd5b6004600083815260200190815260200160002060009054906101000a900473ffffffffffffffffffffffffffffffffffffffff169050919050565b60006107a282610d3f565b90508073ffffffffffffffffffffffffffffffffffffffff168373ffffffffffffffffffffffffffffffffffffffff161415610813576040517f08c379a000000000000000000000000000000000000000000000000000000000815260040161080a9061338a565b60405180910390fd5b8073ffffffffffffffffffffffffffffffffffffffff1661083261158f565b73ffffffffffffffffffffffffffffffffffffffff16148061086157506108608161085b61158f565b6113e9565b5b6108a0576040517f08c379a00000000000000000000000000000000000000000000000000000000081526004016108979061328a565b60405180910390fd5b6108aa8383611597565b505050565b600b6020528060005260406000206000915054906101000a900460ff1681565b60006108db6002611650565b905090565b6108f16108eb61158f565b84611665565b610930576040517f08c379a00000000000000000000000000000000000000000000000000000000081526004016109279061320a565b60405180910390fd5b600060c0600a858154811061096e577f4e487b7100000000000000000000000000000000000000000000000000000000600052603260045260246000fd5b906000526020600020906003020160000154901c90508176ffffffffffffffffffffffffffffffffffffffffffffff1660b88460ff16901b60c08367ffffffffffffffff16901b1717600a85815481106109f1577f4e487b7100000000000000000000000000000000000000000000000000000000600052603260045260246000fd5b90600052602060002090600302016000018190555050505050565b600080600080600060c0600a8781548110610a50577f4e487b7100000000000000000000000000000000000000000000000000000000600052603260045260246000fd5b906000526020600020906003020160000154901c60b8600a8881548110610aa0577f4e487b7100000000000000000000000000000000000000000000000000000000600052603260045260246000fd5b906000526020600020906003020160000154901c600a8881548110610aee577f4e487b7100000000000000000000000000000000000000000000000000000000600052603260045260246000fd5b906000526020600020906003020160000154600a8981548110610b3a577f4e487b7100000000000000000000000000000000000000000000000000000000600052603260045260246000fd5b906000526020600020906003020160010154600a8a81548110610b86577f4e487b7100000000000000000000000000000000000000000000000000000000600052603260045260246000fd5b9060005260206000209060030201600201549450945094509450945091939590929450565b600a8181548110610bbb57600080fd5b90600052602060002090600302016000915090508060000154908060010154908060020154905083565b610bf6610bf061158f565b82611665565b610c35576040517f08c379a0000000000000000000000000000000000000000000000000000000008152600401610c2c906133aa565b60405180910390fd5b610c40838383611743565b505050565b6000610c9882600160008673ffffffffffffffffffffffffffffffffffffffff1673ffffffffffffffffffffffffffffffffffffffff16815260200190815260200160002061195a90919063ffffffff16565b905092915050565b610cbb838383604051806020016040528060008152506110da565b505050565b610cd1610ccb61158f565b82611665565b610d10576040517f08c379a0000000000000000000000000000000000000000000000000000000008152600401610d07906133ca565b60405180910390fd5b610d1981611974565b50565b600080610d33836002611aa690919063ffffffff16565b50905080915050919050565b6000610d6f82604051806060016040528060298152602001613e45602991396002611ad29092919063ffffffff16565b9050919050565b606060098054610d85906136dd565b80601f0160208091040260200160405190810160405280929190818152602001828054610db1906136dd565b8015610dfe5780601f10610dd357610100808354040283529160200191610dfe565b820191906000526020600020905b815481529060010190602001808311610de157829003601f168201915b5050505050905090565b60008073ffffffffffffffffffffffffffffffffffffffff168273ffffffffffffffffffffffffffffffffffffffff161415610e79576040517f08c379a0000000000000000000000000000000000000000000000000000000008152600401610e70906132aa565b60405180910390fd5b610ec0600160008473ffffffffffffffffffffffffffffffffffffffff1673ffffffffffffffffffffffffffffffffffffffff168152602001908152602001600020611af1565b9050919050565b606060078054610ed6906136dd565b80601f0160208091040260200160405190810160405280929190818152602001828054610f02906136dd565b8015610f4f5780601f10610f2457610100808354040283529160200191610f4f565b820191906000526020600020905b815481529060010190602001808311610f3257829003601f168201915b5050505050905090565b610f6161158f565b73ffffffffffffffffffffffffffffffffffffffff168273ffffffffffffffffffffffffffffffffffffffff161415610fcf576040517f08c379a0000000000000000000000000000000000000000000000000000000008152600401610fc69061324a565b60405180910390fd5b8060056000610fdc61158f565b73ffffffffffffffffffffffffffffffffffffffff1673ffffffffffffffffffffffffffffffffffffffff16815260200190815260200160002060008473ffffffffffffffffffffffffffffffffffffffff1673ffffffffffffffffffffffffffffffffffffffff16815260200190815260200160002060006101000a81548160ff0219169083151502179055508173ffffffffffffffffffffffffffffffffffffffff1661108961158f565b73ffffffffffffffffffffffffffffffffffffffff167f17307eab39ab6107e8899845ad3d59bd9653f200f220920489ca2b5937696c31836040516110ce919061316d565b60405180910390a35050565b6110eb6110e561158f565b83611665565b61112a576040517f08c379a0000000000000000000000000000000000000000000000000000000008152600401611121906133aa565b60405180910390fd5b61113684848484611b06565b50505050565b6000600b60008767ffffffffffffffff1667ffffffffffffffff16815260200190815260200160002060009054906101000a900460ff161561117d57600080fd5b6001600b60008867ffffffffffffffff1667ffffffffffffffff16815260200190815260200160002060006101000a81548160ff0219169083151502179055506000600a805490509050600a60405180606001604052808776ffffffffffffffffffffffffffffffffffffffffffffff1660b88a60ff16901b60c08c67ffffffffffffffff16901b1717815260200186815260200185815250908060018154018082558091505060019003906000526020600020906003020160009091909190915060008201518160000155602082015181600101556040820151816002015550506112693382611b62565b8091505095945050505050565b606061128182611572565b6112c0576040517f08c379a00000000000000000000000000000000000000000000000000000000081526004016112b79061336a565b60405180910390fd5b60006008600084815260200190815260200160002080546112e0906136dd565b80601f016020809104026020016040519081016040528092919081815260200182805461130c906136dd565b80156113595780601f1061132e57610100808354040283529160200191611359565b820191906000526020600020905b81548152906001019060200180831161133c57829003601f168201915b50505050509050600061136a610d76565b90506000815114156113805781925050506113e4565b6000825111156113b557808260405160200161139d9291906130e2565b604051602081830303815290604052925050506113e4565b806113bf85611b80565b6040516020016113d09291906130e2565b604051602081830303815290604052925050505b919050565b6000600560008473ffffffffffffffffffffffffffffffffffffffff1673ffffffffffffffffffffffffffffffffffffffff16815260200190815260200160002060008373ffffffffffffffffffffffffffffffffffffffff1673ffffffffffffffffffffffffffffffffffffffff16815260200190815260200160002060009054906101000a900460ff16905092915050565b61148e61148861158f565b84611665565b6114cd576040517f08c379a00000000000000000000000000000000000000000000000000000000081526004016114c4906132ea565b60405180910390fd5b81600a8481548110611508577f4e487b7100000000000000000000000000000000000000000000000000000000600052603260045260246000fd5b90600052602060002090600302016001018190555080600a8481548110611558577f4e487b7100000000000000000000000000000000000000000000000000000000600052603260045260246000fd5b906000526020600020906003020160020181905550505050565b6000611588826002611d2d90919063ffffffff16565b9050919050565b600033905090565b816004600083815260200190815260200160002060006101000a81548173ffffffffffffffffffffffffffffffffffffffff021916908373ffffffffffffffffffffffffffffffffffffffff160217905550808273ffffffffffffffffffffffffffffffffffffffff1661160a83610d3f565b73ffffffffffffffffffffffffffffffffffffffff167f8c5be1e5ebec7d5bd14f71427d1e84f3dd0314c0f7b2291e5b200ac8c7c3b92560405160405180910390a45050565b600061165e82600001611d47565b9050919050565b600061167082611572565b6116af576040517f08c379a00000000000000000000000000000000000000000000000000000000081526004016116a69061326a565b60405180910390fd5b60006116ba83610d3f565b90508073ffffffffffffffffffffffffffffffffffffffff168473ffffffffffffffffffffffffffffffffffffffff16148061172957508373ffffffffffffffffffffffffffffffffffffffff1661171184610712565b73ffffffffffffffffffffffffffffffffffffffff16145b8061173a575061173981856113e9565b5b91505092915050565b8273ffffffffffffffffffffffffffffffffffffffff1661176382610d3f565b73ffffffffffffffffffffffffffffffffffffffff16146117b9576040517f08c379a00000000000000000000000000000000000000000000000000000000081526004016117b09061334a565b60405180910390fd5b600073ffffffffffffffffffffffffffffffffffffffff168273ffffffffffffffffffffffffffffffffffffffff161415611829576040517f08c379a00000000000000000000000000000000000000000000000000000000081526004016118209061322a565b60405180910390fd5b611834838383611d58565b61183f600082611597565b61189081600160008673ffffffffffffffffffffffffffffffffffffffff1673ffffffffffffffffffffffffffffffffffffffff168152602001908152602001600020611d5d90919063ffffffff16565b506118e281600160008573ffffffffffffffffffffffffffffffffffffffff1673ffffffffffffffffffffffffffffffffffffffff168152602001908152602001600020611d7790919063ffffffff16565b506118f981836002611d919092919063ffffffff16565b50808273ffffffffffffffffffffffffffffffffffffffff168473ffffffffffffffffffffffffffffffffffffffff167fddf252ad1be2c89b69c2b068fc378daa952ba7f163c4a11628f55a4df523b3ef60405160405180910390a4505050565b60006119698360000183611dc6565b60001c905092915050565b600061197f82610d3f565b905061198d81600084611d58565b611998600083611597565b60006008600084815260200190815260200160002080546119b8906136dd565b9050146119df576008600083815260200190815260200160002060006119de91906128a2565b5b611a3082600160008473ffffffffffffffffffffffffffffffffffffffff1673ffffffffffffffffffffffffffffffffffffffff168152602001908152602001600020611d5d90919063ffffffff16565b50611a45826002611e6090919063ffffffff16565b5081600073ffffffffffffffffffffffffffffffffffffffff168273ffffffffffffffffffffffffffffffffffffffff167fddf252ad1be2c89b69c2b068fc378daa952ba7f163c4a11628f55a4df523b3ef60405160405180910390a45050565b600080600080611ab98660000186611e7a565b915091508160001c8160001c9350935050509250929050565b6000611ae5846000018460001b84611f2a565b60001c90509392505050565b6000611aff82600001611ff1565b9050919050565b611b11848484611743565b611b1d84848484612002565b611b5c576040517f08c379a0000000000000000000000000000000000000000000000000000000008152600401611b53906131ca565b60405180910390fd5b50505050565b611b7c828260405180602001604052806000815250612199565b5050565b60606000821415611bc8576040518060400160405280600181526020017f30000000000000000000000000000000000000000000000000000000000000008152509050611d28565b600082905060005b60008214611bfa578080611be390613740565b915050600a82611bf3919061357e565b9150611bd0565b60008167ffffffffffffffff811115611c3c577f4e487b7100000000000000000000000000000000000000000000000000000000600052604160045260246000fd5b6040519080825280601f01601f191660200182016040528015611c6e5781602001600182028036833780820191505090505b5090505b60008514611d2157600182611c8791906135af565b9150600a85611c969190613789565b6030611ca29190613528565b60f81b818381518110611cde577f4e487b7100000000000000000000000000000000000000000000000000000000600052603260045260246000fd5b60200101907effffffffffffffffffffffffffffffffffffffffffffffffffffffffffffff1916908160001a905350600a85611d1a919061357e565b9450611c72565b8093505050505b919050565b6000611d3f836000018360001b6121f4565b905092915050565b600081600001805490509050919050565b505050565b6000611d6f836000018360001b612217565b905092915050565b6000611d89836000018360001b6123a1565b905092915050565b6000611dbd846000018460001b8473ffffffffffffffffffffffffffffffffffffffff1660001b612411565b90509392505050565b600081836000018054905011611e11576040517f08c379a0000000000000000000000000000000000000000000000000000000008152600401611e08906131aa565b60405180910390fd5b826000018281548110611e4d577f4e487b7100000000000000000000000000000000000000000000000000000000600052603260045260246000fd5b9060005260206000200154905092915050565b6000611e72836000018360001b612523565b905092915050565b60008082846000018054905011611ec6576040517f08c379a0000000000000000000000000000000000000000000000000000000008152600401611ebd906132ca565b60405180910390fd5b6000846000018481548110611f04577f4e487b7100000000000000000000000000000000000000000000000000000000600052603260045260246000fd5b906000526020600020906002020190508060000154816001015492509250509250929050565b60008084600101600085815260200190815260200160002054905060008114158390611f8c576040517f08c379a0000000000000000000000000000000000000000000000000000000008152600401611f839190613188565b60405180910390fd5b5084600001600182611f9e91906135af565b81548110611fd5577f4e487b7100000000000000000000000000000000000000000000000000000000600052603260045260246000fd5b9060005260206000209060020201600101549150509392505050565b600081600001805490509050919050565b60006120238473ffffffffffffffffffffffffffffffffffffffff166126de565b1561218c578373ffffffffffffffffffffffffffffffffffffffff1663150b7a0261204c61158f565b8786866040518563ffffffff1660e01b815260040161206e9493929190613121565b602060405180830381600087803b15801561208857600080fd5b505af19250505080156120b957506040513d601f19601f820116820180604052508101906120b69190612bdf565b60015b61213c573d80600081146120e9576040519150601f19603f3d011682016040523d82523d6000602084013e6120ee565b606091505b50600081511415612134576040517f08c379a000000000000000000000000000000000000000000000000000000000815260040161212b906131ca565b60405180910390fd5b805181602001fd5b63150b7a0260e01b7bffffffffffffffffffffffffffffffffffffffffffffffffffffffff1916817bffffffffffffffffffffffffffffffffffffffffffffffffffffffff191614915050612191565b600190505b949350505050565b6121a383836126f1565b6121b06000848484612002565b6121ef576040517f08c379a00000000000000000000000000000000000000000000000000000000081526004016121e6906131ca565b60405180910390fd5b505050565b600080836001016000848152602001908152602001600020541415905092915050565b6000808360010160008481526020019081526020016000205490506000811461239557600060018261224991906135af565b905060006001866000018054905061226191906135af565b905060008660000182815481106122a1577f4e487b7100000000000000000000000000000000000000000000000000000000600052603260045260246000fd5b90600052602060002001549050808760000184815481106122eb577f4e487b7100000000000000000000000000000000000000000000000000000000600052603260045260246000fd5b90600052602060002001819055506001836123069190613528565b8760010160008381526020019081526020016000208190555086600001805480612359577f4e487b7100000000000000000000000000000000000000000000000000000000600052603160045260246000fd5b6001900381819060005260206000200160009055905586600101600087815260200190815260200160002060009055600194505050505061239b565b60009150505b92915050565b60006123ad838361287f565b61240657826000018290806001815401808255809150506001900390600052602060002001600090919091909150558260000180549050836001016000848152602001908152602001600020819055506001905061240b565b600090505b92915050565b60008084600101600085815260200190815260200160002054905060008114156124b85784600001604051806040016040528086815260200185815250908060018154018082558091505060019003906000526020600020906002020160009091909190915060008201518160000155602082015181600101555050846000018054905085600101600086815260200190815260200160002081905550600191505061251c565b82856000016001836124ca91906135af565b81548110612501577f4e487b7100000000000000000000000000000000000000000000000000000000600052603260045260246000fd5b90600052602060002090600202016001018190555060009150505b9392505050565b600080836001016000848152602001908152602001600020549050600081146126d257600060018261255591906135af565b905060006001866000018054905061256d91906135af565b905060008660000182815481106125ad577f4e487b7100000000000000000000000000000000000000000000000000000000600052603260045260246000fd5b90600052602060002090600202019050808760000184815481106125fa577f4e487b7100000000000000000000000000000000000000000000000000000000600052603260045260246000fd5b9060005260206000209060020201600082015481600001556001820154816001015590505060018361262c9190613528565b876001016000836000015481526020019081526020016000208190555086600001805480612683577f4e487b7100000000000000000000000000000000000000000000000000000000600052603160045260246000fd5b60019003818190600052602060002090600202016000808201600090556001820160009055505090558660010160008781526020019081526020016000206000905560019450505050506126d8565b60009150505b92915050565b600080823b905060008111915050919050565b600073ffffffffffffffffffffffffffffffffffffffff168273ffffffffffffffffffffffffffffffffffffffff161415612761576040517f08c379a00000000000000000000000000000000000000000000000000000000081526004016127589061330a565b60405180910390fd5b61276a81611572565b156127aa576040517f08c379a00000000000000000000000000000000000000000000000000000000081526004016127a1906131ea565b60405180910390fd5b6127b660008383611d58565b61280781600160008573ffffffffffffffffffffffffffffffffffffffff1673ffffffffffffffffffffffffffffffffffffffff168152602001908152602001600020611d7790919063ffffffff16565b5061281e81836002611d919092919063ffffffff16565b50808273ffffffffffffffffffffffffffffffffffffffff16600073ffffffffffffffffffffffffffffffffffffffff167fddf252ad1be2c89b69c2b068fc378daa952ba7f163c4a11628f55a4df523b3ef60405160405180910390a45050565b600080836001016000848152602001908152602001600020541415905092915050565b5080546128ae906136dd565b6000825580601f106128c057506128df565b601f0160209004906000526020600020908101906128de91906128e2565b5b50565b5b808211156128fb5760008160009055506001016128e3565b5090565b600061291261290d846134b4565b61348f565b90508281526020810184848401111561292a57600080fd5b61293584828561369b565b509392505050565b60008135905061294c81613da3565b92915050565b60008135905061296181613dba565b92915050565b60008135905061297681613dd1565b92915050565b60008151905061298b81613dd1565b92915050565b600082601f8301126129a257600080fd5b81356129b28482602086016128ff565b91505092915050565b6000813590506129ca81613de8565b92915050565b6000813590506129df81613dff565b92915050565b6000813590506129f481613e16565b92915050565b600081359050612a0981613e2d565b92915050565b600060208284031215612a2157600080fd5b6000612a2f8482850161293d565b91505092915050565b60008060408385031215612a4b57600080fd5b6000612a598582860161293d565b9250506020612a6a8582860161293d565b9150509250929050565b600080600060608486031215612a8957600080fd5b6000612a978682870161293d565b9350506020612aa88682870161293d565b9250506040612ab9868287016129d0565b9150509250925092565b60008060008060808587031215612ad957600080fd5b6000612ae78782880161293d565b9450506020612af88782880161293d565b9350506040612b09878288016129d0565b925050606085013567ffffffffffffffff811115612b2657600080fd5b612b3287828801612991565b91505092959194509250565b60008060408385031215612b5157600080fd5b6000612b5f8582860161293d565b9250506020612b7085828601612952565b9150509250929050565b60008060408385031215612b8d57600080fd5b6000612b9b8582860161293d565b9250506020612bac858286016129d0565b9150509250929050565b600060208284031215612bc857600080fd5b6000612bd684828501612967565b91505092915050565b600060208284031215612bf157600080fd5b6000612bff8482850161297c565b91505092915050565b600060208284031215612c1a57600080fd5b6000612c28848285016129d0565b91505092915050565b600080600060608486031215612c4657600080fd5b6000612c54868287016129d0565b9350506020612c65868287016129d0565b9250506040612c76868287016129d0565b9150509250925092565b600080600060608486031215612c9557600080fd5b6000612ca3868287016129d0565b9350506020612cb4868287016129fa565b9250506040612cc5868287016129bb565b9150509250925092565b600060208284031215612ce157600080fd5b6000612cef848285016129e5565b91505092915050565b600080600080600060a08688031215612d1057600080fd5b6000612d1e888289016129e5565b9550506020612d2f888289016129fa565b9450506040612d40888289016129bb565b9350506060612d51888289016129d0565b9250506080612d62888289016129d0565b9150509295509295909350565b612d78816135e3565b82525050565b612d87816135f5565b82525050565b6000612d98826134e5565b612da281856134fb565b9350612db28185602086016136aa565b612dbb81613876565b840191505092915050565b6000612dd1826134f0565b612ddb818561350c565b9350612deb8185602086016136aa565b612df481613876565b840191505092915050565b6000612e0a826134f0565b612e14818561351d565b9350612e248185602086016136aa565b80840191505092915050565b6000612e3d60228361350c565b9150612e4882613887565b604082019050919050565b6000612e6060328361350c565b9150612e6b826138d6565b604082019050919050565b6000612e83601c8361350c565b9150612e8e82613925565b602082019050919050565b6000612ea660298361350c565b9150612eb18261394e565b604082019050919050565b6000612ec960248361350c565b9150612ed48261399d565b604082019050919050565b6000612eec60198361350c565b9150612ef7826139ec565b602082019050919050565b6000612f0f602c8361350c565b9150612f1a82613a15565b604082019050919050565b6000612f3260388361350c565b9150612f3d82613a64565b604082019050919050565b6000612f55602a8361350c565b9150612f6082613ab3565b604082019050919050565b6000612f7860228361350c565b9150612f8382613b02565b604082019050919050565b6000612f9b602f8361350c565b9150612fa682613b51565b604082019050919050565b6000612fbe60208361350c565b9150612fc982613ba0565b602082019050919050565b6000612fe1602c8361350c565b9150612fec82613bc9565b604082019050919050565b600061300460298361350c565b915061300f82613c18565b604082019050919050565b6000613027602f8361350c565b915061303282613c67565b604082019050919050565b600061304a60218361350c565b915061305582613cb6565b604082019050919050565b600061306d60318361350c565b915061307882613d05565b604082019050919050565b600061309060308361350c565b915061309b82613d54565b604082019050919050565b6130af8161364d565b82525050565b6130be81613670565b82525050565b6130cd8161367a565b82525050565b6130dc8161368e565b82525050565b60006130ee8285612dff565b91506130fa8284612dff565b91508190509392505050565b600060208201905061311b6000830184612d6f565b92915050565b60006080820190506131366000830187612d6f565b6131436020830186612d6f565b61315060408301856130b5565b81810360608301526131628184612d8d565b905095945050505050565b60006020820190506131826000830184612d7e565b92915050565b600060208201905081810360008301526131a28184612dc6565b905092915050565b600060208201905081810360008301526131c381612e30565b9050919050565b600060208201905081810360008301526131e381612e53565b9050919050565b6000602082019050818103600083015261320381612e76565b9050919050565b6000602082019050818103600083015261322381612e99565b9050919050565b6000602082019050818103600083015261324381612ebc565b9050919050565b6000602082019050818103600083015261326381612edf565b9050919050565b6000602082019050818103600083015261328381612f02565b9050919050565b600060208201905081810360008301526132a381612f25565b9050919050565b600060208201905081810360008301526132c381612f48565b9050919050565b600060208201905081810360008301526132e381612f6b565b9050919050565b6000602082019050818103600083015261330381612f8e565b9050919050565b6000602082019050818103600083015261332381612fb1565b9050919050565b6000602082019050818103600083015261334381612fd4565b9050919050565b6000602082019050818103600083015261336381612ff7565b9050919050565b600060208201905081810360008301526133838161301a565b9050919050565b600060208201905081810360008301526133a38161303d565b9050919050565b600060208201905081810360008301526133c381613060565b9050919050565b600060208201905081810360008301526133e381613083565b9050919050565b60006020820190506133ff60008301846130b5565b92915050565b600060608201905061341a60008301866130b5565b61342760208301856130b5565b61343460408301846130b5565b949350505050565b600060a08201905061345160008301886130c4565b61345e60208301876130d3565b61346b60408301866130a6565b61347860608301856130b5565b61348560808301846130b5565b9695505050505050565b60006134996134aa565b90506134a5828261370f565b919050565b6000604051905090565b600067ffffffffffffffff8211156134cf576134ce613847565b5b6134d882613876565b9050602081019050919050565b600081519050919050565b600081519050919050565b600082825260208201905092915050565b600082825260208201905092915050565b600081905092915050565b600061353382613670565b915061353e83613670565b9250827fffffffffffffffffffffffffffffffffffffffffffffffffffffffffffffffff03821115613573576135726137ba565b5b828201905092915050565b600061358982613670565b915061359483613670565b9250826135a4576135a36137e9565b5b828204905092915050565b60006135ba82613670565b91506135c583613670565b9250828210156135d8576135d76137ba565b5b828203905092915050565b60006135ee8261362d565b9050919050565b60008115159050919050565b60007fffffffff0000000000000000000000000000000000000000000000000000000082169050919050565b600073ffffffffffffffffffffffffffffffffffffffff82169050919050565b600076ffffffffffffffffffffffffffffffffffffffffffffff82169050919050565b6000819050919050565b600067ffffffffffffffff82169050919050565b600060ff82169050919050565b82818337600083830152505050565b60005b838110156136c85780820151818401526020810190506136ad565b838111156136d7576000848401525b50505050565b600060028204905060018216806136f557607f821691505b6020821081141561370957613708613818565b5b50919050565b61371882613876565b810181811067ffffffffffffffff8211171561373757613736613847565b5b80604052505050565b600061374b82613670565b91507fffffffffffffffffffffffffffffffffffffffffffffffffffffffffffffffff82141561377e5761377d6137ba565b5b600182019050919050565b600061379482613670565b915061379f83613670565b9250826137af576137ae6137e9565b5b828206905092915050565b7f4e487b7100000000000000000000000000000000000000000000000000000000600052601160045260246000fd5b7f4e487b7100000000000000000000000000000000000000000000000000000000600052601260045260246000fd5b7f4e487b7100000000000000000000000000000000000000000000000000000000600052602260045260246000fd5b7f4e487b7100000000000000000000000000000000000000000000000000000000600052604160045260246000fd5b6000601f19601f8301169050919050565b7f456e756d657261626c655365743a20696e646578206f7574206f6620626f756e60008201527f6473000000000000000000000000000000000000000000000000000000000000602082015250565b7f4552433732313a207472616e7366657220746f206e6f6e20455243373231526560008201527f63656976657220696d706c656d656e7465720000000000000000000000000000602082015250565b7f4552433732313a20746f6b656e20616c7265616479206d696e74656400000000600082015250565b7f7365744e616d653a2063616c6c6572206973206e6f74206f776e6572206e6f7260008201527f20617070726f7665640000000000000000000000000000000000000000000000602082015250565b7f4552433732313a207472616e7366657220746f20746865207a65726f2061646460008201527f7265737300000000000000000000000000000000000000000000000000000000602082015250565b7f4552433732313a20617070726f766520746f2063616c6c657200000000000000600082015250565b7f4552433732313a206f70657261746f7220717565727920666f72206e6f6e657860008201527f697374656e7420746f6b656e0000000000000000000000000000000000000000602082015250565b7f4552433732313a20617070726f76652063616c6c6572206973206e6f74206f7760008201527f6e6572206e6f7220617070726f76656420666f7220616c6c0000000000000000602082015250565b7f4552433732313a2062616c616e636520717565727920666f7220746865207a6560008201527f726f206164647265737300000000000000000000000000000000000000000000602082015250565b7f456e756d657261626c654d61703a20696e646578206f7574206f6620626f756e60008201527f6473000000000000000000000000000000000000000000000000000000000000602082015250565b7f736574446e614d757461626c653a2063616c6c6572206973206e6f74206f776e60008201527f6572206e6f7220617070726f7665640000000000000000000000000000000000602082015250565b7f4552433732313a206d696e7420746f20746865207a65726f2061646472657373600082015250565b7f4552433732313a20617070726f76656420717565727920666f72206e6f6e657860008201527f697374656e7420746f6b656e0000000000000000000000000000000000000000602082015250565b7f4552433732313a207472616e73666572206f6620746f6b656e2074686174206960008201527f73206e6f74206f776e0000000000000000000000000000000000000000000000602082015250565b7f4552433732314d657461646174613a2055524920717565727920666f72206e6f60008201527f6e6578697374656e7420746f6b656e0000000000000000000000000000000000602082015250565b7f4552433732313a20617070726f76616c20746f2063757272656e74206f776e6560008201527f7200000000000000000000000000000000000000000000000000000000000000602082015250565b7f4552433732313a207472616e736665722063616c6c6572206973206e6f74206f60008201527f776e6572206e6f7220617070726f766564000000000000000000000000000000602082015250565b7f4552433732314275726e61626c653a2063616c6c6572206973206e6f74206f7760008201527f6e6572206e6f7220617070726f76656400000000000000000000000000000000602082015250565b613dac816135e3565b8114613db757600080fd5b50565b613dc3816135f5565b8114613dce57600080fd5b50565b613dda81613601565b8114613de557600080fd5b50565b613df18161364d565b8114613dfc57600080fd5b50565b613e0881613670565b8114613e1357600080fd5b50565b613e1f8161367a565b8114613e2a57600080fd5b50565b613e368161368e565b8114613e4157600080fd5b5056fe4552433732313a206f776e657220717565727920666f72206e6f6e6578697374656e7420746f6b656ea264697066735822122060ab601f16540519c26c5349bf6080abce136d04eaa126412224dacb918eb89864736f6c63430008010033",
  "immutableReferences": {},
  "source": "pragma solidity >=0.8.1;\n\nimport \"../contract-utils/token/ERC721/ERC721Burnable.sol\";\n//import \"https://github.com/OpenZeppelin/openzeppelin-contracts/blob/master/contracts/token/ERC721/ERC721Burnable.sol\";\n\ncontract CanvasERC721 is ERC721Burnable {\n\t\n\tstruct CanvasDatum {\n        uint256 immut_netKey_name;\n        uint256 mutable_0;\n\t\tuint256 mutable_1;\n\t}\n\t\n\t//int/uint sighned unsighn integers of various sizes\n\t//in steps of 8 from int8 to int256\n\tCanvasDatum[] public canvasData;\n\n\tmapping(uint64 => bool) public dnaImmutableExists;\n\n\tconstructor() public ERC721(\"Canvas\", \"CNV\") {\n\n\t\tcanvasData.push(CanvasDatum(\n\t\t\t//                v NetKey\n\t\t\t//   IMMUT DNA   | |                 Name String\n\t\t\t0x0000000000000000000000000000000000000000000000000000000000000000,\n\t\t\t//                           MUTABLE\n\t\t\t0x0000000000000000000000000000000000000000000000000000000000000000,\n\t\t\t//                           MUTABLE\n\t\t\t0x0000000000000000000000000000000000000000000000000000000000000000));//Skip over the 0 index\n\t}\n\n\tfunction mint(uint64 _dnaImmutable, uint8 _netKey, uint184 _name, uint256 _dnaMutable_0, uint256 _dnaMutable_1) public payable returns (uint256){\n\t\t//require uniqueness\n\t\trequire(!dnaImmutableExists[_dnaImmutable]);\n\t\tdnaImmutableExists[_dnaImmutable] = true;\n\t\t//get new id\n\t\tuint256 _id = canvasData.length;\n\t\t\n\t\tcanvasData.push(CanvasDatum(\n\t\t\t(uint256(_dnaImmutable) << 192) | (uint256(_netKey) << 184) | (uint256(_name)),\n\t\t\t_dnaMutable_0,\n\t\t\t_dnaMutable_1\n\t\t));\n\t\t\n\t\t_safeMint(msg.sender, _id);\n\t\treturn _id;\n\t}\n\n\tfunction getCanvasInfo(uint _id) public view returns (uint64, uint8, uint184, uint256, uint256) {\n\t\treturn (\n\t\t\tuint64(canvasData[_id].immut_netKey_name >> 192), \n\t\t\tuint8(canvasData[_id].immut_netKey_name >> 184), \n\t\t\tuint184(canvasData[_id].immut_netKey_name), \n\t\t\tcanvasData[_id].mutable_0, \n\t\t\tcanvasData[_id].mutable_1);\n\t}\n\n\tfunction setDnaMutable(uint _id, uint256 _dnaMutable_0, uint256 _dnaMutable_1) public {\n\t\trequire(_isApprovedOrOwner(_msgSender(), _id), \"setDnaMutable: caller is not owner nor approved\");\n\n        canvasData[_id].mutable_0 = _dnaMutable_0;\n        canvasData[_id].mutable_1 = _dnaMutable_1;\n\t}\n\n\tfunction setNetKeyAndName(uint _id, uint8 _netKey, uint184 _name) public {\n\t\trequire(_isApprovedOrOwner(_msgSender(), _id), \"setName: caller is not owner nor approved\");\n        uint64 immut = uint64(canvasData[_id].immut_netKey_name >> 192);\n\t\tcanvasData[_id].immut_netKey_name = (uint256(immut) << 192) | (uint256(_netKey) << 184) | (uint256(_name));\n\t} \n\n}",
  "sourcePath": "/home/sand/projects/ror/contracts/CanvasERC721.sol",
  "compiler": {
    "name": "solc",
    "version": "0.8.1+commit.df193b15.Emscripten.clang"
  },
  "schemaVersion": "3.3.3",
  "updatedAt": "2021-02-23T22:24:40.482Z",
  "networkType": "ethereum",
  "devdoc": {
    "kind": "dev",
    "methods": {
      "approve(address,uint256)": {
        "details": "See {IERC721-approve}."
      },
      "balanceOf(address)": {
        "details": "See {IERC721-balanceOf}."
      },
      "baseURI()": {
        "details": "Returns the base URI set via {_setBaseURI}. This will be automatically added as a prefix in {tokenURI} to each token's URI, or to the token ID if no specific URI is set for that token ID."
      },
      "burn(uint256)": {
        "details": "Burns `tokenId`. See {ERC721-_burn}. Requirements: - The caller must own `tokenId` or be an approved operator."
      },
      "getApproved(uint256)": {
        "details": "See {IERC721-getApproved}."
      },
      "isApprovedForAll(address,address)": {
        "details": "See {IERC721-isApprovedForAll}."
      },
      "name()": {
        "details": "See {IERC721Metadata-name}."
      },
      "ownerOf(uint256)": {
        "details": "See {IERC721-ownerOf}."
      },
      "safeTransferFrom(address,address,uint256)": {
        "details": "See {IERC721-safeTransferFrom}."
      },
      "safeTransferFrom(address,address,uint256,bytes)": {
        "details": "See {IERC721-safeTransferFrom}."
      },
      "setApprovalForAll(address,bool)": {
        "details": "See {IERC721-setApprovalForAll}."
      },
      "supportsInterface(bytes4)": {
        "details": "See {IERC165-supportsInterface}. Time complexity O(1), guaranteed to always use less than 30 000 gas."
      },
      "symbol()": {
        "details": "See {IERC721Metadata-symbol}."
      },
      "tokenByIndex(uint256)": {
        "details": "See {IERC721Enumerable-tokenByIndex}."
      },
      "tokenOfOwnerByIndex(address,uint256)": {
        "details": "See {IERC721Enumerable-tokenOfOwnerByIndex}."
      },
      "tokenURI(uint256)": {
        "details": "See {IERC721Metadata-tokenURI}."
      },
      "totalSupply()": {
        "details": "See {IERC721Enumerable-totalSupply}."
      },
      "transferFrom(address,address,uint256)": {
        "details": "See {IERC721-transferFrom}."
      }
    },
    "version": 1
  },
  "userdoc": {
    "kind": "user",
    "methods": {},
    "version": 1
  }
}