{
  "contractName": "CanvasERC721",
  "abi": [
    {
      "inputs": [],
      "stateMutability": "nonpayable",
      "type": "constructor"
    },
    {
      "anonymous": false,
      "inputs": [
        {
          "indexed": true,
          "internalType": "address",
          "name": "owner",
          "type": "address"
        },
        {
          "indexed": true,
          "internalType": "address",
          "name": "approved",
          "type": "address"
        },
        {
          "indexed": true,
          "internalType": "uint256",
          "name": "tokenId",
          "type": "uint256"
        }
      ],
      "name": "Approval",
      "type": "event"
    },
    {
      "anonymous": false,
      "inputs": [
        {
          "indexed": true,
          "internalType": "address",
          "name": "owner",
          "type": "address"
        },
        {
          "indexed": true,
          "internalType": "address",
          "name": "operator",
          "type": "address"
        },
        {
          "indexed": false,
          "internalType": "bool",
          "name": "approved",
          "type": "bool"
        }
      ],
      "name": "ApprovalForAll",
      "type": "event"
    },
    {
      "anonymous": false,
      "inputs": [
        {
          "indexed": true,
          "internalType": "address",
          "name": "from",
          "type": "address"
        },
        {
          "indexed": true,
          "internalType": "address",
          "name": "to",
          "type": "address"
        },
        {
          "indexed": true,
          "internalType": "uint256",
          "name": "tokenId",
          "type": "uint256"
        }
      ],
      "name": "Transfer",
      "type": "event"
    },
    {
      "inputs": [
        {
          "internalType": "address",
          "name": "to",
          "type": "address"
        },
        {
          "internalType": "uint256",
          "name": "tokenId",
          "type": "uint256"
        }
      ],
      "name": "approve",
      "outputs": [],
      "stateMutability": "nonpayable",
      "type": "function"
    },
    {
      "inputs": [
        {
          "internalType": "address",
          "name": "owner",
          "type": "address"
        }
      ],
      "name": "balanceOf",
      "outputs": [
        {
          "internalType": "uint256",
          "name": "",
          "type": "uint256"
        }
      ],
      "stateMutability": "view",
      "type": "function",
      "constant": true
    },
    {
      "inputs": [],
      "name": "baseURI",
      "outputs": [
        {
          "internalType": "string",
          "name": "",
          "type": "string"
        }
      ],
      "stateMutability": "view",
      "type": "function",
      "constant": true
    },
    {
      "inputs": [
        {
          "internalType": "uint256",
          "name": "tokenId",
          "type": "uint256"
        }
      ],
      "name": "burn",
      "outputs": [],
      "stateMutability": "nonpayable",
      "type": "function"
    },
    {
      "inputs": [
        {
          "internalType": "uint256",
          "name": "",
          "type": "uint256"
        }
      ],
      "name": "dnaImmutable",
      "outputs": [
        {
          "internalType": "uint16",
          "name": "",
          "type": "uint16"
        }
      ],
      "stateMutability": "view",
      "type": "function",
      "constant": true
    },
    {
      "inputs": [
        {
          "internalType": "uint16",
          "name": "",
          "type": "uint16"
        }
      ],
      "name": "dnaImmutableExists",
      "outputs": [
        {
          "internalType": "bool",
          "name": "",
          "type": "bool"
        }
      ],
      "stateMutability": "view",
      "type": "function",
      "constant": true
    },
    {
      "inputs": [
        {
          "internalType": "uint256",
          "name": "tokenId",
          "type": "uint256"
        }
      ],
      "name": "getApproved",
      "outputs": [
        {
          "internalType": "address",
          "name": "",
          "type": "address"
        }
      ],
      "stateMutability": "view",
      "type": "function",
      "constant": true
    },
    {
      "inputs": [
        {
          "internalType": "uint256",
          "name": "",
          "type": "uint256"
        }
      ],
      "name": "idToDnaMutable",
      "outputs": [
        {
          "internalType": "uint256",
          "name": "",
          "type": "uint256"
        }
      ],
      "stateMutability": "view",
      "type": "function",
      "constant": true
    },
    {
      "inputs": [
        {
          "internalType": "uint256",
          "name": "",
          "type": "uint256"
        }
      ],
      "name": "idToName",
      "outputs": [
        {
          "internalType": "uint256",
          "name": "",
          "type": "uint256"
        }
      ],
      "stateMutability": "view",
      "type": "function",
      "constant": true
    },
    {
      "inputs": [
        {
          "internalType": "address",
          "name": "owner",
          "type": "address"
        },
        {
          "internalType": "address",
          "name": "operator",
          "type": "address"
        }
      ],
      "name": "isApprovedForAll",
      "outputs": [
        {
          "internalType": "bool",
          "name": "",
          "type": "bool"
        }
      ],
      "stateMutability": "view",
      "type": "function",
      "constant": true
    },
    {
      "inputs": [],
      "name": "name",
      "outputs": [
        {
          "internalType": "string",
          "name": "",
          "type": "string"
        }
      ],
      "stateMutability": "view",
      "type": "function",
      "constant": true
    },
    {
      "inputs": [
        {
          "internalType": "uint256",
          "name": "tokenId",
          "type": "uint256"
        }
      ],
      "name": "ownerOf",
      "outputs": [
        {
          "internalType": "address",
          "name": "",
          "type": "address"
        }
      ],
      "stateMutability": "view",
      "type": "function",
      "constant": true
    },
    {
      "inputs": [
        {
          "internalType": "address",
          "name": "from",
          "type": "address"
        },
        {
          "internalType": "address",
          "name": "to",
          "type": "address"
        },
        {
          "internalType": "uint256",
          "name": "tokenId",
          "type": "uint256"
        }
      ],
      "name": "safeTransferFrom",
      "outputs": [],
      "stateMutability": "nonpayable",
      "type": "function"
    },
    {
      "inputs": [
        {
          "internalType": "address",
          "name": "from",
          "type": "address"
        },
        {
          "internalType": "address",
          "name": "to",
          "type": "address"
        },
        {
          "internalType": "uint256",
          "name": "tokenId",
          "type": "uint256"
        },
        {
          "internalType": "bytes",
          "name": "_data",
          "type": "bytes"
        }
      ],
      "name": "safeTransferFrom",
      "outputs": [],
      "stateMutability": "nonpayable",
      "type": "function"
    },
    {
      "inputs": [
        {
          "internalType": "address",
          "name": "operator",
          "type": "address"
        },
        {
          "internalType": "bool",
          "name": "approved",
          "type": "bool"
        }
      ],
      "name": "setApprovalForAll",
      "outputs": [],
      "stateMutability": "nonpayable",
      "type": "function"
    },
    {
      "inputs": [
        {
          "internalType": "bytes4",
          "name": "interfaceId",
          "type": "bytes4"
        }
      ],
      "name": "supportsInterface",
      "outputs": [
        {
          "internalType": "bool",
          "name": "",
          "type": "bool"
        }
      ],
      "stateMutability": "view",
      "type": "function",
      "constant": true
    },
    {
      "inputs": [],
      "name": "symbol",
      "outputs": [
        {
          "internalType": "string",
          "name": "",
          "type": "string"
        }
      ],
      "stateMutability": "view",
      "type": "function",
      "constant": true
    },
    {
      "inputs": [
        {
          "internalType": "uint256",
          "name": "index",
          "type": "uint256"
        }
      ],
      "name": "tokenByIndex",
      "outputs": [
        {
          "internalType": "uint256",
          "name": "",
          "type": "uint256"
        }
      ],
      "stateMutability": "view",
      "type": "function",
      "constant": true
    },
    {
      "inputs": [
        {
          "internalType": "address",
          "name": "owner",
          "type": "address"
        },
        {
          "internalType": "uint256",
          "name": "index",
          "type": "uint256"
        }
      ],
      "name": "tokenOfOwnerByIndex",
      "outputs": [
        {
          "internalType": "uint256",
          "name": "",
          "type": "uint256"
        }
      ],
      "stateMutability": "view",
      "type": "function",
      "constant": true
    },
    {
      "inputs": [
        {
          "internalType": "uint256",
          "name": "tokenId",
          "type": "uint256"
        }
      ],
      "name": "tokenURI",
      "outputs": [
        {
          "internalType": "string",
          "name": "",
          "type": "string"
        }
      ],
      "stateMutability": "view",
      "type": "function",
      "constant": true
    },
    {
      "inputs": [],
      "name": "totalSupply",
      "outputs": [
        {
          "internalType": "uint256",
          "name": "",
          "type": "uint256"
        }
      ],
      "stateMutability": "view",
      "type": "function",
      "constant": true
    },
    {
      "inputs": [
        {
          "internalType": "address",
          "name": "from",
          "type": "address"
        },
        {
          "internalType": "address",
          "name": "to",
          "type": "address"
        },
        {
          "internalType": "uint256",
          "name": "tokenId",
          "type": "uint256"
        }
      ],
      "name": "transferFrom",
      "outputs": [],
      "stateMutability": "nonpayable",
      "type": "function"
    },
    {
      "inputs": [
        {
          "internalType": "uint16",
          "name": "_dnaImmutable",
          "type": "uint16"
        },
        {
          "internalType": "uint256",
          "name": "_dnaMutable",
          "type": "uint256"
        },
        {
          "internalType": "uint256",
          "name": "_name",
          "type": "uint256"
        }
      ],
      "name": "mint",
      "outputs": [
        {
          "internalType": "uint256",
          "name": "",
          "type": "uint256"
        }
      ],
      "stateMutability": "payable",
      "type": "function",
      "payable": true
    },
    {
      "inputs": [
        {
          "internalType": "uint256",
          "name": "_id",
          "type": "uint256"
        }
      ],
      "name": "getDna",
      "outputs": [
        {
          "internalType": "uint16",
          "name": "",
          "type": "uint16"
        },
        {
          "internalType": "uint256",
          "name": "",
          "type": "uint256"
        }
      ],
      "stateMutability": "view",
      "type": "function",
      "constant": true
    },
    {
      "inputs": [
        {
          "internalType": "uint256",
          "name": "_id",
          "type": "uint256"
        },
        {
          "internalType": "uint256",
          "name": "_dnaMutable",
          "type": "uint256"
        }
      ],
      "name": "setDnaMutable",
      "outputs": [],
      "stateMutability": "nonpayable",
      "type": "function"
    },
    {
      "inputs": [
        {
          "internalType": "uint256",
          "name": "_id",
          "type": "uint256"
        },
        {
          "internalType": "uint256",
          "name": "_name",
          "type": "uint256"
        }
      ],
      "name": "setName",
      "outputs": [],
      "stateMutability": "nonpayable",
      "type": "function"
    }
  ],
  "bytecode": "0x60806040523480156200001157600080fd5b506040518060400160405280600681526020017f43616e76617300000000000000000000000000000000000000000000000000008152506040518060400160405280600381526020017f434e560000000000000000000000000000000000000000000000000000000000815250620000af7f01ffc9a700000000000000000000000000000000000000000000000000000000620001c760201b60201c565b8160069080519060200190620000c79291906200029f565b508060079080519060200190620000e09291906200029f565b50620001127f80ac58cd00000000000000000000000000000000000000000000000000000000620001c760201b60201c565b620001437f5b5e139f00000000000000000000000000000000000000000000000000000000620001c760201b60201c565b620001747f780e9d6300000000000000000000000000000000000000000000000000000000620001c760201b60201c565b5050600a600090806001815401808255809150506001900390600052602060002090601091828204019190066002029091909190916101000a81548161ffff021916908361ffff16021790555062000437565b63ffffffff60e01b817bffffffffffffffffffffffffffffffffffffffffffffffffffffffff1916141562000233576040517f08c379a00000000000000000000000000000000000000000000000000000000081526004016200022a9062000376565b60405180910390fd5b6001600080837bffffffffffffffffffffffffffffffffffffffffffffffffffffffff19167bffffffffffffffffffffffffffffffffffffffffffffffffffffffff1916815260200190815260200160002060006101000a81548160ff02191690831515021790555050565b828054620002ad90620003a9565b90600052602060002090601f016020900481019282620002d157600085556200031d565b82601f10620002ec57805160ff19168380011785556200031d565b828001600101855582156200031d579182015b828111156200031c578251825591602001919060010190620002ff565b5b5090506200032c919062000330565b5090565b5b808211156200034b57600081600090555060010162000331565b5090565b60006200035e601c8362000398565b91506200036b826200040e565b602082019050919050565b6000602082019050818103600083015262000391816200034f565b9050919050565b600082825260208201905092915050565b60006002820490506001821680620003c257607f821691505b60208210811415620003d957620003d8620003df565b5b50919050565b7f4e487b7100000000000000000000000000000000000000000000000000000000600052602260045260246000fd5b7f4552433136353a20696e76616c696420696e7465726661636520696400000000600082015250565b613b5e80620004476000396000f3fe6080604052600436106101815760003560e01c80634f6ccce7116100d157806395d89b411161008a578063ab25ae7011610064578063ab25ae70146105e4578063b88d4fde14610621578063c87b56dd1461064a578063e985e9c51461068757610181565b806395d89b4114610567578063a22cb46514610592578063a868ec85146105bb57610181565b80634f6ccce71461040b5780636352211e146104485780636c0360eb1461048557806370a08231146104b057806371e621d2146104ed5780638dbeb35c1461052a57610181565b806323b872dd1161013e578063422627c311610118578063422627c31461035257806342842e0e1461039057806342966c68146103b957806344c5f2ef146103e257610181565b806323b872dd146102af5780632f745c59146102d8578063364410b31461031557610181565b806301ffc9a71461018657806306fdde03146101c3578063081812fc146101ee578063095ea7b31461022b57806318160ddd146102545780631bbabaf91461027f575b600080fd5b34801561019257600080fd5b506101ad60048036038101906101a891906129c3565b6106c4565b6040516101ba9190612ed2565b60405180910390f35b3480156101cf57600080fd5b506101d861072b565b6040516101e59190612eed565b60405180910390f35b3480156101fa57600080fd5b5061021560048036038101906102109190612a8d565b6107bd565b6040516102229190612e6b565b60405180910390f35b34801561023757600080fd5b50610252600480360381019061024d9190612987565b610842565b005b34801561026057600080fd5b5061026961095a565b6040516102769190613193565b60405180910390f35b61029960048036038101906102949190612a3e565b61096b565b6040516102a69190613193565b60405180910390f35b3480156102bb57600080fd5b506102d660048036038101906102d19190612881565b610a6d565b005b3480156102e457600080fd5b506102ff60048036038101906102fa9190612987565b610acd565b60405161030c9190613193565b60405180910390f35b34801561032157600080fd5b5061033c60048036038101906103379190612a8d565b610b28565b6040516103499190613193565b60405180910390f35b34801561035e57600080fd5b5061037960048036038101906103749190612a8d565b610b40565b60405161038792919061316a565b60405180910390f35b34801561039c57600080fd5b506103b760048036038101906103b29190612881565b610bbe565b005b3480156103c557600080fd5b506103e060048036038101906103db9190612a8d565b610bde565b005b3480156103ee57600080fd5b5061040960048036038101906104049190612ab6565b610c3a565b005b34801561041757600080fd5b50610432600480360381019061042d9190612a8d565b610ca6565b60405161043f9190613193565b60405180910390f35b34801561045457600080fd5b5061046f600480360381019061046a9190612a8d565b610cc9565b60405161047c9190612e6b565b60405180910390f35b34801561049157600080fd5b5061049a610d00565b6040516104a79190612eed565b60405180910390f35b3480156104bc57600080fd5b506104d760048036038101906104d2919061281c565b610d92565b6040516104e49190613193565b60405180910390f35b3480156104f957600080fd5b50610514600480360381019061050f9190612a15565b610e51565b6040516105219190612ed2565b60405180910390f35b34801561053657600080fd5b50610551600480360381019061054c9190612a8d565b610e71565b60405161055e9190613193565b60405180910390f35b34801561057357600080fd5b5061057c610e89565b6040516105899190612eed565b60405180910390f35b34801561059e57600080fd5b506105b960048036038101906105b4919061294b565b610f1b565b005b3480156105c757600080fd5b506105e260048036038101906105dd9190612ab6565b61109c565b005b3480156105f057600080fd5b5061060b60048036038101906106069190612a8d565b611108565b604051610618919061314f565b60405180910390f35b34801561062d57600080fd5b50610648600480360381019061064391906128d0565b611140565b005b34801561065657600080fd5b50610671600480360381019061066c9190612a8d565b6111a2565b60405161067e9190612eed565b60405180910390f35b34801561069357600080fd5b506106ae60048036038101906106a99190612845565b611315565b6040516106bb9190612ed2565b60405180910390f35b6000806000837bffffffffffffffffffffffffffffffffffffffffffffffffffffffff19167bffffffffffffffffffffffffffffffffffffffffffffffffffffffff1916815260200190815260200160002060009054906101000a900460ff169050919050565b60606006805461073a906133c6565b80601f0160208091040260200160405190810160405280929190818152602001828054610766906133c6565b80156107b35780601f10610788576101008083540402835291602001916107b3565b820191906000526020600020905b81548152906001019060200180831161079657829003601f168201915b5050505050905090565b60006107c8826113a9565b610807576040517f08c379a00000000000000000000000000000000000000000000000000000000081526004016107fe9061308f565b60405180910390fd5b6004600083815260200190815260200160002060009054906101000a900473ffffffffffffffffffffffffffffffffffffffff169050919050565b600061084d82610cc9565b90508073ffffffffffffffffffffffffffffffffffffffff168373ffffffffffffffffffffffffffffffffffffffff1614156108be576040517f08c379a00000000000000000000000000000000000000000000000000000000081526004016108b5906130ef565b60405180910390fd5b8073ffffffffffffffffffffffffffffffffffffffff166108dd6113c6565b73ffffffffffffffffffffffffffffffffffffffff16148061090c575061090b816109066113c6565b611315565b5b61094b576040517f08c379a000000000000000000000000000000000000000000000000000000000815260040161094290612fef565b60405180910390fd5b61095583836113ce565b505050565b60006109666002611487565b905090565b6000600b60008561ffff1661ffff16815260200190815260200160002060009054906101000a900460ff16156109a057600080fd5b6001600b60008661ffff1661ffff16815260200190815260200160002060006101000a81548160ff0219169083151502179055506000600a805490509050600a8590806001815401808255809150506001900390600052602060002090601091828204019190066002029091909190916101000a81548161ffff021916908361ffff16021790555082600c60008381526020019081526020016000208190555083600d600083815260200190815260200160002081905550610a62338261149c565b809150509392505050565b610a7e610a786113c6565b826114ba565b610abd576040517f08c379a0000000000000000000000000000000000000000000000000000000008152600401610ab49061310f565b60405180910390fd5b610ac8838383611598565b505050565b6000610b2082600160008673ffffffffffffffffffffffffffffffffffffffff1673ffffffffffffffffffffffffffffffffffffffff1681526020019081526020016000206117af90919063ffffffff16565b905092915050565b600c6020528060005260406000206000915090505481565b600080600a8381548110610b7d577f4e487b7100000000000000000000000000000000000000000000000000000000600052603260045260246000fd5b90600052602060002090601091828204019190066002029054906101000a900461ffff16600d60008581526020019081526020016000205491509150915091565b610bd983838360405180602001604052806000815250611140565b505050565b610bef610be96113c6565b826114ba565b610c2e576040517f08c379a0000000000000000000000000000000000000000000000000000000008152600401610c259061312f565b60405180910390fd5b610c37816117c9565b50565b610c4b610c456113c6565b836114ba565b610c8a576040517f08c379a0000000000000000000000000000000000000000000000000000000008152600401610c819061304f565b60405180910390fd5b80600d6000848152602001908152602001600020819055505050565b600080610cbd8360026118fb90919063ffffffff16565b50905080915050919050565b6000610cf982604051806060016040528060298152602001613b006029913960026119279092919063ffffffff16565b9050919050565b606060098054610d0f906133c6565b80601f0160208091040260200160405190810160405280929190818152602001828054610d3b906133c6565b8015610d885780601f10610d5d57610100808354040283529160200191610d88565b820191906000526020600020905b815481529060010190602001808311610d6b57829003601f168201915b5050505050905090565b60008073ffffffffffffffffffffffffffffffffffffffff168273ffffffffffffffffffffffffffffffffffffffff161415610e03576040517f08c379a0000000000000000000000000000000000000000000000000000000008152600401610dfa9061300f565b60405180910390fd5b610e4a600160008473ffffffffffffffffffffffffffffffffffffffff1673ffffffffffffffffffffffffffffffffffffffff168152602001908152602001600020611946565b9050919050565b600b6020528060005260406000206000915054906101000a900460ff1681565b600d6020528060005260406000206000915090505481565b606060078054610e98906133c6565b80601f0160208091040260200160405190810160405280929190818152602001828054610ec4906133c6565b8015610f115780601f10610ee657610100808354040283529160200191610f11565b820191906000526020600020905b815481529060010190602001808311610ef457829003601f168201915b5050505050905090565b610f236113c6565b73ffffffffffffffffffffffffffffffffffffffff168273ffffffffffffffffffffffffffffffffffffffff161415610f91576040517f08c379a0000000000000000000000000000000000000000000000000000000008152600401610f8890612faf565b60405180910390fd5b8060056000610f9e6113c6565b73ffffffffffffffffffffffffffffffffffffffff1673ffffffffffffffffffffffffffffffffffffffff16815260200190815260200160002060008473ffffffffffffffffffffffffffffffffffffffff1673ffffffffffffffffffffffffffffffffffffffff16815260200190815260200160002060006101000a81548160ff0219169083151502179055508173ffffffffffffffffffffffffffffffffffffffff1661104b6113c6565b73ffffffffffffffffffffffffffffffffffffffff167f17307eab39ab6107e8899845ad3d59bd9653f200f220920489ca2b5937696c31836040516110909190612ed2565b60405180910390a35050565b6110ad6110a76113c6565b836114ba565b6110ec576040517f08c379a00000000000000000000000000000000000000000000000000000000081526004016110e390612f6f565b60405180910390fd5b80600c6000848152602001908152602001600020819055505050565b600a818154811061111857600080fd5b9060005260206000209060109182820401919006600202915054906101000a900461ffff1681565b61115161114b6113c6565b836114ba565b611190576040517f08c379a00000000000000000000000000000000000000000000000000000000081526004016111879061310f565b60405180910390fd5b61119c8484848461195b565b50505050565b60606111ad826113a9565b6111ec576040517f08c379a00000000000000000000000000000000000000000000000000000000081526004016111e3906130cf565b60405180910390fd5b600060086000848152602001908152602001600020805461120c906133c6565b80601f0160208091040260200160405190810160405280929190818152602001828054611238906133c6565b80156112855780601f1061125a57610100808354040283529160200191611285565b820191906000526020600020905b81548152906001019060200180831161126857829003601f168201915b505050505090506000611296610d00565b90506000815114156112ac578192505050611310565b6000825111156112e15780826040516020016112c9929190612e47565b60405160208183030381529060405292505050611310565b806112eb856119b7565b6040516020016112fc929190612e47565b604051602081830303815290604052925050505b919050565b6000600560008473ffffffffffffffffffffffffffffffffffffffff1673ffffffffffffffffffffffffffffffffffffffff16815260200190815260200160002060008373ffffffffffffffffffffffffffffffffffffffff1673ffffffffffffffffffffffffffffffffffffffff16815260200190815260200160002060009054906101000a900460ff16905092915050565b60006113bf826002611b6490919063ffffffff16565b9050919050565b600033905090565b816004600083815260200190815260200160002060006101000a81548173ffffffffffffffffffffffffffffffffffffffff021916908373ffffffffffffffffffffffffffffffffffffffff160217905550808273ffffffffffffffffffffffffffffffffffffffff1661144183610cc9565b73ffffffffffffffffffffffffffffffffffffffff167f8c5be1e5ebec7d5bd14f71427d1e84f3dd0314c0f7b2291e5b200ac8c7c3b92560405160405180910390a45050565b600061149582600001611b7e565b9050919050565b6114b6828260405180602001604052806000815250611b8f565b5050565b60006114c5826113a9565b611504576040517f08c379a00000000000000000000000000000000000000000000000000000000081526004016114fb90612fcf565b60405180910390fd5b600061150f83610cc9565b90508073ffffffffffffffffffffffffffffffffffffffff168473ffffffffffffffffffffffffffffffffffffffff16148061157e57508373ffffffffffffffffffffffffffffffffffffffff16611566846107bd565b73ffffffffffffffffffffffffffffffffffffffff16145b8061158f575061158e8185611315565b5b91505092915050565b8273ffffffffffffffffffffffffffffffffffffffff166115b882610cc9565b73ffffffffffffffffffffffffffffffffffffffff161461160e576040517f08c379a0000000000000000000000000000000000000000000000000000000008152600401611605906130af565b60405180910390fd5b600073ffffffffffffffffffffffffffffffffffffffff168273ffffffffffffffffffffffffffffffffffffffff16141561167e576040517f08c379a000000000000000000000000000000000000000000000000000000000815260040161167590612f8f565b60405180910390fd5b611689838383611bea565b6116946000826113ce565b6116e581600160008673ffffffffffffffffffffffffffffffffffffffff1673ffffffffffffffffffffffffffffffffffffffff168152602001908152602001600020611bef90919063ffffffff16565b5061173781600160008573ffffffffffffffffffffffffffffffffffffffff1673ffffffffffffffffffffffffffffffffffffffff168152602001908152602001600020611c0990919063ffffffff16565b5061174e81836002611c239092919063ffffffff16565b50808273ffffffffffffffffffffffffffffffffffffffff168473ffffffffffffffffffffffffffffffffffffffff167fddf252ad1be2c89b69c2b068fc378daa952ba7f163c4a11628f55a4df523b3ef60405160405180910390a4505050565b60006117be8360000183611c58565b60001c905092915050565b60006117d482610cc9565b90506117e281600084611bea565b6117ed6000836113ce565b600060086000848152602001908152602001600020805461180d906133c6565b9050146118345760086000838152602001908152602001600020600061183391906126d9565b5b61188582600160008473ffffffffffffffffffffffffffffffffffffffff1673ffffffffffffffffffffffffffffffffffffffff168152602001908152602001600020611bef90919063ffffffff16565b5061189a826002611cf290919063ffffffff16565b5081600073ffffffffffffffffffffffffffffffffffffffff168273ffffffffffffffffffffffffffffffffffffffff167fddf252ad1be2c89b69c2b068fc378daa952ba7f163c4a11628f55a4df523b3ef60405160405180910390a45050565b60008060008061190e8660000186611d0c565b915091508160001c8160001c9350935050509250929050565b600061193a846000018460001b84611dbc565b60001c90509392505050565b600061195482600001611e83565b9050919050565b611966848484611598565b61197284848484611e94565b6119b1576040517f08c379a00000000000000000000000000000000000000000000000000000000081526004016119a890612f2f565b60405180910390fd5b50505050565b606060008214156119ff576040518060400160405280600181526020017f30000000000000000000000000000000000000000000000000000000000000008152509050611b5f565b600082905060005b60008214611a31578080611a1a90613429565b915050600a82611a2a919061329d565b9150611a07565b60008167ffffffffffffffff811115611a73577f4e487b7100000000000000000000000000000000000000000000000000000000600052604160045260246000fd5b6040519080825280601f01601f191660200182016040528015611aa55781602001600182028036833780820191505090505b5090505b60008514611b5857600182611abe91906132ce565b9150600a85611acd9190613472565b6030611ad99190613247565b60f81b818381518110611b15577f4e487b7100000000000000000000000000000000000000000000000000000000600052603260045260246000fd5b60200101907effffffffffffffffffffffffffffffffffffffffffffffffffffffffffffff1916908160001a905350600a85611b51919061329d565b9450611aa9565b8093505050505b919050565b6000611b76836000018360001b61202b565b905092915050565b600081600001805490509050919050565b611b99838361204e565b611ba66000848484611e94565b611be5576040517f08c379a0000000000000000000000000000000000000000000000000000000008152600401611bdc90612f2f565b60405180910390fd5b505050565b505050565b6000611c01836000018360001b6121dc565b905092915050565b6000611c1b836000018360001b612366565b905092915050565b6000611c4f846000018460001b8473ffffffffffffffffffffffffffffffffffffffff1660001b6123d6565b90509392505050565b600081836000018054905011611ca3576040517f08c379a0000000000000000000000000000000000000000000000000000000008152600401611c9a90612f0f565b60405180910390fd5b826000018281548110611cdf577f4e487b7100000000000000000000000000000000000000000000000000000000600052603260045260246000fd5b9060005260206000200154905092915050565b6000611d04836000018360001b6124e8565b905092915050565b60008082846000018054905011611d58576040517f08c379a0000000000000000000000000000000000000000000000000000000008152600401611d4f9061302f565b60405180910390fd5b6000846000018481548110611d96577f4e487b7100000000000000000000000000000000000000000000000000000000600052603260045260246000fd5b906000526020600020906002020190508060000154816001015492509250509250929050565b60008084600101600085815260200190815260200160002054905060008114158390611e1e576040517f08c379a0000000000000000000000000000000000000000000000000000000008152600401611e159190612eed565b60405180910390fd5b5084600001600182611e3091906132ce565b81548110611e67577f4e487b7100000000000000000000000000000000000000000000000000000000600052603260045260246000fd5b9060005260206000209060020201600101549150509392505050565b600081600001805490509050919050565b6000611eb58473ffffffffffffffffffffffffffffffffffffffff166126a3565b1561201e578373ffffffffffffffffffffffffffffffffffffffff1663150b7a02611ede6113c6565b8786866040518563ffffffff1660e01b8152600401611f009493929190612e86565b602060405180830381600087803b158015611f1a57600080fd5b505af1925050508015611f4b57506040513d601f19601f82011682018060405250810190611f4891906129ec565b60015b611fce573d8060008114611f7b576040519150601f19603f3d011682016040523d82523d6000602084013e611f80565b606091505b50600081511415611fc6576040517f08c379a0000000000000000000000000000000000000000000000000000000008152600401611fbd90612f2f565b60405180910390fd5b805181602001fd5b63150b7a0260e01b7bffffffffffffffffffffffffffffffffffffffffffffffffffffffff1916817bffffffffffffffffffffffffffffffffffffffffffffffffffffffff191614915050612023565b600190505b949350505050565b600080836001016000848152602001908152602001600020541415905092915050565b600073ffffffffffffffffffffffffffffffffffffffff168273ffffffffffffffffffffffffffffffffffffffff1614156120be576040517f08c379a00000000000000000000000000000000000000000000000000000000081526004016120b59061306f565b60405180910390fd5b6120c7816113a9565b15612107576040517f08c379a00000000000000000000000000000000000000000000000000000000081526004016120fe90612f4f565b60405180910390fd5b61211360008383611bea565b61216481600160008573ffffffffffffffffffffffffffffffffffffffff1673ffffffffffffffffffffffffffffffffffffffff168152602001908152602001600020611c0990919063ffffffff16565b5061217b81836002611c239092919063ffffffff16565b50808273ffffffffffffffffffffffffffffffffffffffff16600073ffffffffffffffffffffffffffffffffffffffff167fddf252ad1be2c89b69c2b068fc378daa952ba7f163c4a11628f55a4df523b3ef60405160405180910390a45050565b6000808360010160008481526020019081526020016000205490506000811461235a57600060018261220e91906132ce565b905060006001866000018054905061222691906132ce565b90506000866000018281548110612266577f4e487b7100000000000000000000000000000000000000000000000000000000600052603260045260246000fd5b90600052602060002001549050808760000184815481106122b0577f4e487b7100000000000000000000000000000000000000000000000000000000600052603260045260246000fd5b90600052602060002001819055506001836122cb9190613247565b876001016000838152602001908152602001600020819055508660000180548061231e577f4e487b7100000000000000000000000000000000000000000000000000000000600052603160045260246000fd5b60019003818190600052602060002001600090559055866001016000878152602001908152602001600020600090556001945050505050612360565b60009150505b92915050565b600061237283836126b6565b6123cb5782600001829080600181540180825580915050600190039060005260206000200160009091909190915055826000018054905083600101600084815260200190815260200160002081905550600190506123d0565b600090505b92915050565b600080846001016000858152602001908152602001600020549050600081141561247d578460000160405180604001604052808681526020018581525090806001815401808255809150506001900390600052602060002090600202016000909190919091506000820151816000015560208201518160010155505084600001805490508560010160008681526020019081526020016000208190555060019150506124e1565b828560000160018361248f91906132ce565b815481106124c6577f4e487b7100000000000000000000000000000000000000000000000000000000600052603260045260246000fd5b90600052602060002090600202016001018190555060009150505b9392505050565b6000808360010160008481526020019081526020016000205490506000811461269757600060018261251a91906132ce565b905060006001866000018054905061253291906132ce565b90506000866000018281548110612572577f4e487b7100000000000000000000000000000000000000000000000000000000600052603260045260246000fd5b90600052602060002090600202019050808760000184815481106125bf577f4e487b7100000000000000000000000000000000000000000000000000000000600052603260045260246000fd5b906000526020600020906002020160008201548160000155600182015481600101559050506001836125f19190613247565b876001016000836000015481526020019081526020016000208190555086600001805480612648577f4e487b7100000000000000000000000000000000000000000000000000000000600052603160045260246000fd5b600190038181906000526020600020906002020160008082016000905560018201600090555050905586600101600087815260200190815260200160002060009055600194505050505061269d565b60009150505b92915050565b600080823b905060008111915050919050565b600080836001016000848152602001908152602001600020541415905092915050565b5080546126e5906133c6565b6000825580601f106126f75750612716565b601f0160209004906000526020600020908101906127159190612719565b5b50565b5b8082111561273257600081600090555060010161271a565b5090565b6000612749612744846131d3565b6131ae565b90508281526020810184848401111561276157600080fd5b61276c848285613384565b509392505050565b60008135905061278381613a8c565b92915050565b60008135905061279881613aa3565b92915050565b6000813590506127ad81613aba565b92915050565b6000815190506127c281613aba565b92915050565b600082601f8301126127d957600080fd5b81356127e9848260208601612736565b91505092915050565b60008135905061280181613ad1565b92915050565b60008135905061281681613ae8565b92915050565b60006020828403121561282e57600080fd5b600061283c84828501612774565b91505092915050565b6000806040838503121561285857600080fd5b600061286685828601612774565b925050602061287785828601612774565b9150509250929050565b60008060006060848603121561289657600080fd5b60006128a486828701612774565b93505060206128b586828701612774565b92505060406128c686828701612807565b9150509250925092565b600080600080608085870312156128e657600080fd5b60006128f487828801612774565b945050602061290587828801612774565b935050604061291687828801612807565b925050606085013567ffffffffffffffff81111561293357600080fd5b61293f878288016127c8565b91505092959194509250565b6000806040838503121561295e57600080fd5b600061296c85828601612774565b925050602061297d85828601612789565b9150509250929050565b6000806040838503121561299a57600080fd5b60006129a885828601612774565b92505060206129b985828601612807565b9150509250929050565b6000602082840312156129d557600080fd5b60006129e38482850161279e565b91505092915050565b6000602082840312156129fe57600080fd5b6000612a0c848285016127b3565b91505092915050565b600060208284031215612a2757600080fd5b6000612a35848285016127f2565b91505092915050565b600080600060608486031215612a5357600080fd5b6000612a61868287016127f2565b9350506020612a7286828701612807565b9250506040612a8386828701612807565b9150509250925092565b600060208284031215612a9f57600080fd5b6000612aad84828501612807565b91505092915050565b60008060408385031215612ac957600080fd5b6000612ad785828601612807565b9250506020612ae885828601612807565b9150509250929050565b612afb81613302565b82525050565b612b0a81613314565b82525050565b6000612b1b82613204565b612b25818561321a565b9350612b35818560208601613393565b612b3e8161355f565b840191505092915050565b6000612b548261320f565b612b5e818561322b565b9350612b6e818560208601613393565b612b778161355f565b840191505092915050565b6000612b8d8261320f565b612b97818561323c565b9350612ba7818560208601613393565b80840191505092915050565b6000612bc060228361322b565b9150612bcb82613570565b604082019050919050565b6000612be360328361322b565b9150612bee826135bf565b604082019050919050565b6000612c06601c8361322b565b9150612c118261360e565b602082019050919050565b6000612c2960298361322b565b9150612c3482613637565b604082019050919050565b6000612c4c60248361322b565b9150612c5782613686565b604082019050919050565b6000612c6f60198361322b565b9150612c7a826136d5565b602082019050919050565b6000612c92602c8361322b565b9150612c9d826136fe565b604082019050919050565b6000612cb560388361322b565b9150612cc08261374d565b604082019050919050565b6000612cd8602a8361322b565b9150612ce38261379c565b604082019050919050565b6000612cfb60228361322b565b9150612d06826137eb565b604082019050919050565b6000612d1e602f8361322b565b9150612d298261383a565b604082019050919050565b6000612d4160208361322b565b9150612d4c82613889565b602082019050919050565b6000612d64602c8361322b565b9150612d6f826138b2565b604082019050919050565b6000612d8760298361322b565b9150612d9282613901565b604082019050919050565b6000612daa602f8361322b565b9150612db582613950565b604082019050919050565b6000612dcd60218361322b565b9150612dd88261399f565b604082019050919050565b6000612df060318361322b565b9150612dfb826139ee565b604082019050919050565b6000612e1360308361322b565b9150612e1e82613a3d565b604082019050919050565b612e328161334c565b82525050565b612e418161337a565b82525050565b6000612e538285612b82565b9150612e5f8284612b82565b91508190509392505050565b6000602082019050612e806000830184612af2565b92915050565b6000608082019050612e9b6000830187612af2565b612ea86020830186612af2565b612eb56040830185612e38565b8181036060830152612ec78184612b10565b905095945050505050565b6000602082019050612ee76000830184612b01565b92915050565b60006020820190508181036000830152612f078184612b49565b905092915050565b60006020820190508181036000830152612f2881612bb3565b9050919050565b60006020820190508181036000830152612f4881612bd6565b9050919050565b60006020820190508181036000830152612f6881612bf9565b9050919050565b60006020820190508181036000830152612f8881612c1c565b9050919050565b60006020820190508181036000830152612fa881612c3f565b9050919050565b60006020820190508181036000830152612fc881612c62565b9050919050565b60006020820190508181036000830152612fe881612c85565b9050919050565b6000602082019050818103600083015261300881612ca8565b9050919050565b6000602082019050818103600083015261302881612ccb565b9050919050565b6000602082019050818103600083015261304881612cee565b9050919050565b6000602082019050818103600083015261306881612d11565b9050919050565b6000602082019050818103600083015261308881612d34565b9050919050565b600060208201905081810360008301526130a881612d57565b9050919050565b600060208201905081810360008301526130c881612d7a565b9050919050565b600060208201905081810360008301526130e881612d9d565b9050919050565b6000602082019050818103600083015261310881612dc0565b9050919050565b6000602082019050818103600083015261312881612de3565b9050919050565b6000602082019050818103600083015261314881612e06565b9050919050565b60006020820190506131646000830184612e29565b92915050565b600060408201905061317f6000830185612e29565b61318c6020830184612e38565b9392505050565b60006020820190506131a86000830184612e38565b92915050565b60006131b86131c9565b90506131c482826133f8565b919050565b6000604051905090565b600067ffffffffffffffff8211156131ee576131ed613530565b5b6131f78261355f565b9050602081019050919050565b600081519050919050565b600081519050919050565b600082825260208201905092915050565b600082825260208201905092915050565b600081905092915050565b60006132528261337a565b915061325d8361337a565b9250827fffffffffffffffffffffffffffffffffffffffffffffffffffffffffffffffff03821115613292576132916134a3565b5b828201905092915050565b60006132a88261337a565b91506132b38361337a565b9250826132c3576132c26134d2565b5b828204905092915050565b60006132d98261337a565b91506132e48361337a565b9250828210156132f7576132f66134a3565b5b828203905092915050565b600061330d8261335a565b9050919050565b60008115159050919050565b60007fffffffff0000000000000000000000000000000000000000000000000000000082169050919050565b600061ffff82169050919050565b600073ffffffffffffffffffffffffffffffffffffffff82169050919050565b6000819050919050565b82818337600083830152505050565b60005b838110156133b1578082015181840152602081019050613396565b838111156133c0576000848401525b50505050565b600060028204905060018216806133de57607f821691505b602082108114156133f2576133f1613501565b5b50919050565b6134018261355f565b810181811067ffffffffffffffff821117156134205761341f613530565b5b80604052505050565b60006134348261337a565b91507fffffffffffffffffffffffffffffffffffffffffffffffffffffffffffffffff821415613467576134666134a3565b5b600182019050919050565b600061347d8261337a565b91506134888361337a565b925082613498576134976134d2565b5b828206905092915050565b7f4e487b7100000000000000000000000000000000000000000000000000000000600052601160045260246000fd5b7f4e487b7100000000000000000000000000000000000000000000000000000000600052601260045260246000fd5b7f4e487b7100000000000000000000000000000000000000000000000000000000600052602260045260246000fd5b7f4e487b7100000000000000000000000000000000000000000000000000000000600052604160045260246000fd5b6000601f19601f8301169050919050565b7f456e756d657261626c655365743a20696e646578206f7574206f6620626f756e60008201527f6473000000000000000000000000000000000000000000000000000000000000602082015250565b7f4552433732313a207472616e7366657220746f206e6f6e20455243373231526560008201527f63656976657220696d706c656d656e7465720000000000000000000000000000602082015250565b7f4552433732313a20746f6b656e20616c7265616479206d696e74656400000000600082015250565b7f7365744e616d653a2063616c6c6572206973206e6f74206f776e6572206e6f7260008201527f20617070726f7665640000000000000000000000000000000000000000000000602082015250565b7f4552433732313a207472616e7366657220746f20746865207a65726f2061646460008201527f7265737300000000000000000000000000000000000000000000000000000000602082015250565b7f4552433732313a20617070726f766520746f2063616c6c657200000000000000600082015250565b7f4552433732313a206f70657261746f7220717565727920666f72206e6f6e657860008201527f697374656e7420746f6b656e0000000000000000000000000000000000000000602082015250565b7f4552433732313a20617070726f76652063616c6c6572206973206e6f74206f7760008201527f6e6572206e6f7220617070726f76656420666f7220616c6c0000000000000000602082015250565b7f4552433732313a2062616c616e636520717565727920666f7220746865207a6560008201527f726f206164647265737300000000000000000000000000000000000000000000602082015250565b7f456e756d657261626c654d61703a20696e646578206f7574206f6620626f756e60008201527f6473000000000000000000000000000000000000000000000000000000000000602082015250565b7f736574446e614d757461626c653a2063616c6c6572206973206e6f74206f776e60008201527f6572206e6f7220617070726f7665640000000000000000000000000000000000602082015250565b7f4552433732313a206d696e7420746f20746865207a65726f2061646472657373600082015250565b7f4552433732313a20617070726f76656420717565727920666f72206e6f6e657860008201527f697374656e7420746f6b656e0000000000000000000000000000000000000000602082015250565b7f4552433732313a207472616e73666572206f6620746f6b656e2074686174206960008201527f73206e6f74206f776e0000000000000000000000000000000000000000000000602082015250565b7f4552433732314d657461646174613a2055524920717565727920666f72206e6f60008201527f6e6578697374656e7420746f6b656e0000000000000000000000000000000000602082015250565b7f4552433732313a20617070726f76616c20746f2063757272656e74206f776e6560008201527f7200000000000000000000000000000000000000000000000000000000000000602082015250565b7f4552433732313a207472616e736665722063616c6c6572206973206e6f74206f60008201527f776e6572206e6f7220617070726f766564000000000000000000000000000000602082015250565b7f4552433732314275726e61626c653a2063616c6c6572206973206e6f74206f7760008201527f6e6572206e6f7220617070726f76656400000000000000000000000000000000602082015250565b613a9581613302565b8114613aa057600080fd5b50565b613aac81613314565b8114613ab757600080fd5b50565b613ac381613320565b8114613ace57600080fd5b50565b613ada8161334c565b8114613ae557600080fd5b50565b613af18161337a565b8114613afc57600080fd5b5056fe4552433732313a206f776e657220717565727920666f72206e6f6e6578697374656e7420746f6b656ea26469706673582212202b28f1a1e1b0b4dfc4f91c2bc9ceac0b2d3d2baf6c4682720cd8bc838641a13b64736f6c63430008010033",
  "immutableReferences": {},
  "source": "pragma solidity >=0.8.1;\n\nimport \"../contract-utils/token/ERC721/ERC721Burnable.sol\";\n//import \"https://github.com/OpenZeppelin/openzeppelin-contracts/blob/master/contracts/token/ERC721/ERC721Burnable.sol\";\n\ncontract CanvasERC721 is ERC721Burnable {\n\t//int/uint sighned unsighn integers of various sizes\n\t//in steps of 8 from int8 to int256\n\tuint16[] public dnaImmutable;\n\n\tmapping(uint16 => bool) public dnaImmutableExists;\n\n\tmapping(uint => uint256) public idToName;//Name is 32 byte char array\n\tmapping(uint => uint256) public idToDnaMutable;\n\n\tconstructor() public ERC721(\"Canvas\", \"CNV\") {\n\t\tdnaImmutable.push(0);//Skip over the 0 index\n\t\t//idToName[0] = 0x4e756C6C2043616e766173000000000000000000000000000000000000000000;\n\t\t//idToDnaMutable[0] = 0x4e756C6C2043616e766173000000000000000000000000000000000000000000;\n\t}\n\n\tfunction mint(uint16 _dnaImmutable, uint256 _dnaMutable, uint256 _name) public payable returns (uint){\n\t\t//require unique base dna\n\t\trequire(!dnaImmutableExists[_dnaImmutable]);\n\t\tdnaImmutableExists[_dnaImmutable] = true;\n\t\t//get new id\n\t\tuint _id = dnaImmutable.length;\n\t\tdnaImmutable.push(_dnaImmutable);\n\t\t//push name\n\t\tidToName[_id] = _name;\n\t\tidToDnaMutable[_id] = _dnaMutable;\n\t\t// canvas track it\n\t\t_safeMint(msg.sender, _id);\n\t\treturn _id;\n\t}\n\n\tfunction getDna(uint _id) public view returns (uint16, uint256) {\n\t\treturn (dnaImmutable[_id], idToDnaMutable[_id]);\n\t}\n\n\tfunction setDnaMutable(uint _id, uint256 _dnaMutable) public {\n\t\trequire(_isApprovedOrOwner(_msgSender(), _id), \"setDnaMutable: caller is not owner nor approved\");\n        idToDnaMutable[_id] = _dnaMutable;\n\t}\n\n\tfunction setName(uint _id, uint256 _name) public {\n\t\trequire(_isApprovedOrOwner(_msgSender(), _id), \"setName: caller is not owner nor approved\");\n        idToName[_id] = _name;\n\t} \n\n}",
  "sourcePath": "/home/sand/projects/ror/contracts/CanvasERC721.sol",
  "compiler": {
    "name": "solc",
    "version": "0.8.1+commit.df193b15.Emscripten.clang"
  },
  "schemaVersion": "3.3.3",
  "updatedAt": "2021-02-14T22:37:00.598Z",
  "networkType": "ethereum",
  "devdoc": {
    "kind": "dev",
    "methods": {
      "approve(address,uint256)": {
        "details": "See {IERC721-approve}."
      },
      "balanceOf(address)": {
        "details": "See {IERC721-balanceOf}."
      },
      "baseURI()": {
        "details": "Returns the base URI set via {_setBaseURI}. This will be automatically added as a prefix in {tokenURI} to each token's URI, or to the token ID if no specific URI is set for that token ID."
      },
      "burn(uint256)": {
        "details": "Burns `tokenId`. See {ERC721-_burn}. Requirements: - The caller must own `tokenId` or be an approved operator."
      },
      "getApproved(uint256)": {
        "details": "See {IERC721-getApproved}."
      },
      "isApprovedForAll(address,address)": {
        "details": "See {IERC721-isApprovedForAll}."
      },
      "name()": {
        "details": "See {IERC721Metadata-name}."
      },
      "ownerOf(uint256)": {
        "details": "See {IERC721-ownerOf}."
      },
      "safeTransferFrom(address,address,uint256)": {
        "details": "See {IERC721-safeTransferFrom}."
      },
      "safeTransferFrom(address,address,uint256,bytes)": {
        "details": "See {IERC721-safeTransferFrom}."
      },
      "setApprovalForAll(address,bool)": {
        "details": "See {IERC721-setApprovalForAll}."
      },
      "supportsInterface(bytes4)": {
        "details": "See {IERC165-supportsInterface}. Time complexity O(1), guaranteed to always use less than 30 000 gas."
      },
      "symbol()": {
        "details": "See {IERC721Metadata-symbol}."
      },
      "tokenByIndex(uint256)": {
        "details": "See {IERC721Enumerable-tokenByIndex}."
      },
      "tokenOfOwnerByIndex(address,uint256)": {
        "details": "See {IERC721Enumerable-tokenOfOwnerByIndex}."
      },
      "tokenURI(uint256)": {
        "details": "See {IERC721Metadata-tokenURI}."
      },
      "totalSupply()": {
        "details": "See {IERC721Enumerable-totalSupply}."
      },
      "transferFrom(address,address,uint256)": {
        "details": "See {IERC721-transferFrom}."
      }
    },
    "version": 1
  },
  "userdoc": {
    "kind": "user",
    "methods": {},
    "version": 1
  }
}